{
  "contractName": "TimeTravelingGatekeeper",
  "abi": [
    {
      "constant": true,
      "inputs": [
        {
          "internalType": "uint256",
          "name": "epochNumber",
          "type": "uint256"
        },
        {
          "internalType": "address",
          "name": "resource",
          "type": "address"
        }
      ],
      "name": "getWinningSlate",
      "outputs": [
        {
          "internalType": "uint256",
          "name": "",
          "type": "uint256"
        }
      ],
      "payable": false,
      "stateMutability": "view",
      "type": "function"
    },
    {
      "constant": false,
      "inputs": [
        {
          "internalType": "uint256",
          "name": "numTokens",
          "type": "uint256"
        }
      ],
      "name": "depositVoteTokens",
      "outputs": [
        {
          "internalType": "bool",
          "name": "",
          "type": "bool"
        }
      ],
      "payable": false,
      "stateMutability": "nonpayable",
      "type": "function"
    },
    {
      "constant": true,
      "inputs": [
        {
          "internalType": "uint256",
          "name": "slateID",
          "type": "uint256"
        }
      ],
      "name": "slateRequests",
      "outputs": [
        {
          "internalType": "uint256[]",
          "name": "",
          "type": "uint256[]"
        }
      ],
      "payable": false,
      "stateMutability": "view",
      "type": "function"
    },
    {
      "constant": false,
      "inputs": [
        {
          "internalType": "uint256",
          "name": "numTokens",
          "type": "uint256"
        }
      ],
      "name": "withdrawVoteTokens",
      "outputs": [
        {
          "internalType": "bool",
          "name": "",
          "type": "bool"
        }
      ],
      "payable": false,
      "stateMutability": "nonpayable",
      "type": "function"
    },
    {
      "constant": false,
      "inputs": [
        {
          "internalType": "uint256",
          "name": "slateID",
          "type": "uint256"
        }
      ],
      "name": "withdrawStake",
      "outputs": [
        {
          "internalType": "bool",
          "name": "",
          "type": "bool"
        }
      ],
      "payable": false,
      "stateMutability": "nonpayable",
      "type": "function"
    },
    {
      "constant": true,
      "inputs": [
        {
          "internalType": "uint256",
          "name": "epochNumber",
          "type": "uint256"
        },
        {
          "internalType": "address",
          "name": "resource",
          "type": "address"
        }
      ],
      "name": "contestSlates",
      "outputs": [
        {
          "internalType": "uint256[]",
          "name": "",
          "type": "uint256[]"
        }
      ],
      "payable": false,
      "stateMutability": "view",
      "type": "function"
    },
    {
      "constant": false,
      "inputs": [
        {
          "internalType": "address",
          "name": "_delegate",
          "type": "address"
        }
      ],
      "name": "delegateVotingRights",
      "outputs": [
        {
          "internalType": "bool",
          "name": "",
          "type": "bool"
        }
      ],
      "payable": false,
      "stateMutability": "nonpayable",
      "type": "function"
    },
    {
      "constant": true,
      "inputs": [
        {
          "internalType": "uint256",
          "name": "epochNumber",
          "type": "uint256"
        },
        {
          "internalType": "address",
          "name": "resource",
          "type": "address"
        },
        {
          "internalType": "uint256",
          "name": "slateID",
          "type": "uint256"
        }
      ],
      "name": "getFirstChoiceVotes",
      "outputs": [
        {
          "internalType": "uint256",
          "name": "",
          "type": "uint256"
        }
      ],
      "payable": false,
      "stateMutability": "view",
      "type": "function"
    },
    {
      "constant": false,
      "inputs": [
        {
          "internalType": "bytes",
          "name": "metadataHash",
          "type": "bytes"
        }
      ],
      "name": "requestPermission",
      "outputs": [
        {
          "internalType": "uint256",
          "name": "",
          "type": "uint256"
        }
      ],
      "payable": false,
      "stateMutability": "nonpayable",
      "type": "function"
    },
    {
      "constant": false,
      "inputs": [
        {
          "internalType": "uint256",
          "name": "epochNumber",
          "type": "uint256"
        },
        {
          "internalType": "address",
          "name": "resource",
          "type": "address"
        }
      ],
      "name": "finalizeContest",
      "outputs": [],
      "payable": false,
      "stateMutability": "nonpayable",
      "type": "function"
    },
    {
      "constant": true,
      "inputs": [
        {
          "internalType": "address",
          "name": "",
          "type": "address"
        }
      ],
      "name": "voteTokenBalance",
      "outputs": [
        {
          "internalType": "uint256",
          "name": "",
          "type": "uint256"
        }
      ],
      "payable": false,
      "stateMutability": "view",
      "type": "function"
    },
    {
      "constant": false,
      "inputs": [
        {
          "internalType": "uint256",
          "name": "epochNumber",
          "type": "uint256"
        },
        {
          "internalType": "address",
          "name": "resource",
          "type": "address"
        },
        {
          "internalType": "uint256",
          "name": "startIndex",
          "type": "uint256"
        },
        {
          "internalType": "uint256",
          "name": "count",
          "type": "uint256"
        }
      ],
      "name": "donateChallengerStakes",
      "outputs": [],
      "payable": false,
      "stateMutability": "nonpayable",
      "type": "function"
    },
    {
      "constant": false,
      "inputs": [
        {
          "internalType": "address",
          "name": "voter",
          "type": "address"
        },
        {
          "internalType": "bytes32",
          "name": "commitHash",
          "type": "bytes32"
        },
        {
          "internalType": "uint256",
          "name": "numTokens",
          "type": "uint256"
        }
      ],
      "name": "commitBallot",
      "outputs": [],
      "payable": false,
      "stateMutability": "nonpayable",
      "type": "function"
    },
    {
      "constant": false,
      "inputs": [
        {
          "internalType": "address",
          "name": "resource",
          "type": "address"
        },
        {
          "internalType": "uint256[]",
          "name": "requestIDs",
          "type": "uint256[]"
        },
        {
          "internalType": "bytes",
          "name": "metadataHash",
          "type": "bytes"
        }
      ],
      "name": "recommendSlate",
      "outputs": [
        {
          "internalType": "uint256",
          "name": "",
          "type": "uint256"
        }
      ],
      "payable": false,
      "stateMutability": "nonpayable",
      "type": "function"
    },
    {
      "constant": true,
      "inputs": [
        {
          "internalType": "uint256",
          "name": "epochNumber",
          "type": "uint256"
        },
        {
          "internalType": "address",
          "name": "voter",
          "type": "address"
        }
      ],
      "name": "didCommit",
      "outputs": [
        {
          "internalType": "bool",
          "name": "",
          "type": "bool"
        }
      ],
      "payable": false,
      "stateMutability": "view",
      "type": "function"
    },
    {
      "constant": false,
      "inputs": [
        {
          "internalType": "uint256",
          "name": "epochNumber",
          "type": "uint256"
        },
        {
          "internalType": "address",
          "name": "voter",
          "type": "address"
        },
        {
          "internalType": "address[]",
          "name": "resources",
          "type": "address[]"
        },
        {
          "internalType": "uint256[]",
          "name": "firstChoices",
          "type": "uint256[]"
        },
        {
          "internalType": "uint256[]",
          "name": "secondChoices",
          "type": "uint256[]"
        },
        {
          "internalType": "uint256",
          "name": "salt",
          "type": "uint256"
        }
      ],
      "name": "revealBallot",
      "outputs": [],
      "payable": false,
      "stateMutability": "nonpayable",
      "type": "function"
    },
    {
      "constant": true,
      "inputs": [],
      "name": "requestCount",
      "outputs": [
        {
          "internalType": "uint256",
          "name": "",
          "type": "uint256"
        }
      ],
      "payable": false,
      "stateMutability": "view",
      "type": "function"
    },
    {
      "constant": true,
      "inputs": [
        {
          "internalType": "address",
          "name": "",
          "type": "address"
        }
      ],
      "name": "delegate",
      "outputs": [
        {
          "internalType": "address",
          "name": "",
          "type": "address"
        }
      ],
      "payable": false,
      "stateMutability": "view",
      "type": "function"
    },
    {
      "constant": true,
      "inputs": [
        {
          "internalType": "uint256",
          "name": "",
          "type": "uint256"
        }
      ],
      "name": "ballots",
      "outputs": [
        {
          "internalType": "bool",
          "name": "created",
          "type": "bool"
        }
      ],
      "payable": false,
      "stateMutability": "view",
      "type": "function"
    },
    {
      "constant": true,
      "inputs": [
        {
          "internalType": "uint256",
          "name": "epochNumber",
          "type": "uint256"
        },
        {
          "internalType": "address",
          "name": "resource",
          "type": "address"
        },
        {
          "internalType": "uint256",
          "name": "slateID",
          "type": "uint256"
        }
      ],
      "name": "getSecondChoiceVotes",
      "outputs": [
        {
          "internalType": "uint256",
          "name": "",
          "type": "uint256"
        }
      ],
      "payable": false,
      "stateMutability": "view",
      "type": "function"
    },
    {
      "constant": true,
      "inputs": [],
      "name": "currentEpochNumber",
      "outputs": [
        {
          "internalType": "uint256",
          "name": "",
          "type": "uint256"
        }
      ],
      "payable": false,
      "stateMutability": "view",
      "type": "function"
    },
    {
      "constant": false,
      "inputs": [
        {
          "internalType": "uint256",
          "name": "slateID",
          "type": "uint256"
        }
      ],
      "name": "stakeTokens",
      "outputs": [
        {
          "internalType": "bool",
          "name": "",
          "type": "bool"
        }
      ],
      "payable": false,
      "stateMutability": "nonpayable",
      "type": "function"
    },
    {
      "constant": true,
      "inputs": [],
      "name": "startTime",
      "outputs": [
        {
          "internalType": "uint256",
          "name": "",
          "type": "uint256"
        }
      ],
      "payable": false,
      "stateMutability": "view",
      "type": "function"
    },
    {
      "constant": true,
      "inputs": [
        {
          "internalType": "uint256",
          "name": "epochNumber",
          "type": "uint256"
        },
        {
          "internalType": "address",
          "name": "voter",
          "type": "address"
        }
      ],
      "name": "didReveal",
      "outputs": [
        {
          "internalType": "bool",
          "name": "",
          "type": "bool"
        }
      ],
      "payable": false,
      "stateMutability": "view",
      "type": "function"
    },
    {
      "constant": true,
      "inputs": [],
      "name": "COMMIT_PERIOD_START",
      "outputs": [
        {
          "internalType": "uint256",
          "name": "",
          "type": "uint256"
        }
      ],
      "payable": false,
      "stateMutability": "view",
      "type": "function"
    },
    {
      "constant": true,
      "inputs": [
        {
          "internalType": "uint256",
          "name": "",
          "type": "uint256"
        }
      ],
      "name": "requests",
      "outputs": [
        {
          "internalType": "bytes",
          "name": "metadataHash",
          "type": "bytes"
        },
        {
          "internalType": "address",
          "name": "resource",
          "type": "address"
        },
        {
          "internalType": "bool",
          "name": "approved",
          "type": "bool"
        },
        {
          "internalType": "uint256",
          "name": "expirationTime",
          "type": "uint256"
        },
        {
          "internalType": "uint256",
          "name": "epochNumber",
          "type": "uint256"
        }
      ],
      "payable": false,
      "stateMutability": "view",
      "type": "function"
    },
    {
      "constant": true,
      "inputs": [
        {
          "internalType": "uint256",
          "name": "epochNumber",
          "type": "uint256"
        },
        {
          "internalType": "address",
          "name": "voter",
          "type": "address"
        }
      ],
      "name": "getCommitHash",
      "outputs": [
        {
          "internalType": "bytes32",
          "name": "",
          "type": "bytes32"
        }
      ],
      "payable": false,
      "stateMutability": "view",
      "type": "function"
    },
    {
      "constant": true,
      "inputs": [],
      "name": "parameters",
      "outputs": [
        {
          "internalType": "contract ParameterStore",
          "name": "",
          "type": "address"
        }
      ],
      "payable": false,
      "stateMutability": "view",
      "type": "function"
    },
    {
      "constant": true,
      "inputs": [],
      "name": "slateCount",
      "outputs": [
        {
          "internalType": "uint256",
          "name": "",
          "type": "uint256"
        }
      ],
      "payable": false,
      "stateMutability": "view",
      "type": "function"
    },
    {
      "constant": true,
      "inputs": [],
      "name": "REVEAL_PERIOD_START",
      "outputs": [
        {
          "internalType": "uint256",
          "name": "",
          "type": "uint256"
        }
      ],
      "payable": false,
      "stateMutability": "view",
      "type": "function"
    },
    {
      "constant": true,
      "inputs": [
        {
          "internalType": "address",
          "name": "resource",
          "type": "address"
        }
      ],
      "name": "slateSubmissionPeriodActive",
      "outputs": [
        {
          "internalType": "bool",
          "name": "",
          "type": "bool"
        }
      ],
      "payable": false,
      "stateMutability": "view",
      "type": "function"
    },
    {
      "constant": true,
      "inputs": [
        {
          "internalType": "uint256",
          "name": "epochNumber",
          "type": "uint256"
        },
        {
          "internalType": "address",
          "name": "resource",
          "type": "address"
        }
      ],
      "name": "slateSubmissionDeadline",
      "outputs": [
        {
          "internalType": "uint256",
          "name": "",
          "type": "uint256"
        }
      ],
      "payable": false,
      "stateMutability": "view",
      "type": "function"
    },
    {
      "constant": true,
      "inputs": [
        {
          "internalType": "uint256",
          "name": "epochNumber",
          "type": "uint256"
        },
        {
          "internalType": "address",
          "name": "resource",
          "type": "address"
        }
      ],
      "name": "contestDetails",
      "outputs": [
        {
          "internalType": "enum Gatekeeper.ContestStatus",
          "name": "status",
          "type": "uint8"
        },
        {
          "internalType": "uint256[]",
          "name": "allSlates",
          "type": "uint256[]"
        },
        {
          "internalType": "uint256[]",
          "name": "stakedSlates",
          "type": "uint256[]"
        },
        {
          "internalType": "uint256",
          "name": "lastStaked",
          "type": "uint256"
        },
        {
          "internalType": "uint256",
          "name": "voteWinner",
          "type": "uint256"
        },
        {
          "internalType": "uint256",
          "name": "voteRunnerUp",
          "type": "uint256"
        },
        {
          "internalType": "uint256",
          "name": "winner",
          "type": "uint256"
        }
      ],
      "payable": false,
      "stateMutability": "view",
      "type": "function"
    },
    {
      "constant": true,
      "inputs": [
        {
          "internalType": "uint256",
          "name": "epoch",
          "type": "uint256"
        }
      ],
      "name": "epochStart",
      "outputs": [
        {
          "internalType": "uint256",
          "name": "",
          "type": "uint256"
        }
      ],
      "payable": false,
      "stateMutability": "view",
      "type": "function"
    },
    {
      "constant": true,
      "inputs": [],
      "name": "EPOCH_LENGTH",
      "outputs": [
        {
          "internalType": "uint256",
          "name": "",
          "type": "uint256"
        }
      ],
      "payable": false,
      "stateMutability": "view",
      "type": "function"
    },
    {
      "constant": true,
      "inputs": [
        {
          "internalType": "uint256",
          "name": "epochNumber",
          "type": "uint256"
        },
        {
          "internalType": "address",
          "name": "resource",
          "type": "address"
        }
      ],
      "name": "contestStatus",
      "outputs": [
        {
          "internalType": "enum Gatekeeper.ContestStatus",
          "name": "",
          "type": "uint8"
        }
      ],
      "payable": false,
      "stateMutability": "view",
      "type": "function"
    },
    {
      "constant": true,
      "inputs": [
        {
          "internalType": "uint256",
          "name": "requestID",
          "type": "uint256"
        }
      ],
      "name": "hasPermission",
      "outputs": [
        {
          "internalType": "bool",
          "name": "",
          "type": "bool"
        }
      ],
      "payable": false,
      "stateMutability": "view",
      "type": "function"
    },
    {
      "constant": false,
      "inputs": [
        {
          "internalType": "uint256",
          "name": "epochNumber",
          "type": "uint256"
        },
        {
          "internalType": "address[]",
          "name": "_voters",
          "type": "address[]"
        },
        {
          "internalType": "bytes[]",
          "name": "_ballots",
          "type": "bytes[]"
        },
        {
          "internalType": "uint256[]",
          "name": "_salts",
          "type": "uint256[]"
        }
      ],
      "name": "revealManyBallots",
      "outputs": [],
      "payable": false,
      "stateMutability": "nonpayable",
      "type": "function"
    },
    {
      "constant": true,
      "inputs": [
        {
          "internalType": "address",
          "name": "",
          "type": "address"
        }
      ],
      "name": "incumbent",
      "outputs": [
        {
          "internalType": "address",
          "name": "",
          "type": "address"
        }
      ],
      "payable": false,
      "stateMutability": "view",
      "type": "function"
    },
    {
      "constant": true,
      "inputs": [],
      "name": "SLATE_SUBMISSION_PERIOD_START",
      "outputs": [
        {
          "internalType": "uint256",
          "name": "",
          "type": "uint256"
        }
      ],
      "payable": false,
      "stateMutability": "view",
      "type": "function"
    },
    {
      "constant": true,
      "inputs": [],
      "name": "isCurrentGatekeeper",
      "outputs": [
        {
          "internalType": "bool",
          "name": "",
          "type": "bool"
        }
      ],
      "payable": false,
      "stateMutability": "view",
      "type": "function"
    },
    {
      "constant": true,
      "inputs": [],
      "name": "token",
      "outputs": [
        {
          "internalType": "contract IERC20",
          "name": "",
          "type": "address"
        }
      ],
      "payable": false,
      "stateMutability": "view",
      "type": "function"
    },
    {
      "constant": true,
      "inputs": [
        {
          "internalType": "uint256",
          "name": "",
          "type": "uint256"
        }
      ],
      "name": "slates",
      "outputs": [
        {
          "internalType": "address",
          "name": "recommender",
          "type": "address"
        },
        {
          "internalType": "bytes",
          "name": "metadataHash",
          "type": "bytes"
        },
        {
          "internalType": "enum Gatekeeper.SlateStatus",
          "name": "status",
          "type": "uint8"
        },
        {
          "internalType": "address",
          "name": "staker",
          "type": "address"
        },
        {
          "internalType": "uint256",
          "name": "stake",
          "type": "uint256"
        },
        {
          "internalType": "uint256",
          "name": "epochNumber",
          "type": "uint256"
        },
        {
          "internalType": "address",
          "name": "resource",
          "type": "address"
        }
      ],
      "payable": false,
      "stateMutability": "view",
      "type": "function"
    },
    {
      "inputs": [
        {
          "internalType": "uint256",
          "name": "_startTime",
          "type": "uint256"
        },
        {
          "internalType": "contract ParameterStore",
          "name": "_parameters",
          "type": "address"
        },
        {
          "internalType": "contract IERC20",
          "name": "_token",
          "type": "address"
        }
      ],
      "payable": false,
      "stateMutability": "nonpayable",
      "type": "constructor"
    },
    {
      "anonymous": false,
      "inputs": [
        {
          "indexed": false,
          "internalType": "int256",
          "name": "amount",
          "type": "int256"
        },
        {
          "indexed": false,
          "internalType": "uint256",
          "name": "startTime",
          "type": "uint256"
        }
      ],
      "name": "TimeTraveled",
      "type": "event"
    },
    {
      "anonymous": false,
      "inputs": [
        {
          "indexed": false,
          "internalType": "address",
          "name": "account",
          "type": "address"
        }
      ],
      "name": "AddedToWhitelist",
      "type": "event"
    },
    {
      "anonymous": false,
      "inputs": [
        {
          "indexed": false,
          "internalType": "address",
          "name": "account",
          "type": "address"
        }
      ],
      "name": "RemovedFromWhitelist",
      "type": "event"
    },
    {
      "anonymous": false,
      "inputs": [
        {
          "indexed": true,
          "internalType": "uint256",
          "name": "epochNumber",
          "type": "uint256"
        },
        {
          "indexed": true,
          "internalType": "address",
          "name": "resource",
          "type": "address"
        },
        {
          "indexed": false,
          "internalType": "uint256",
          "name": "requestID",
          "type": "uint256"
        },
        {
          "indexed": false,
          "internalType": "bytes",
          "name": "metadataHash",
          "type": "bytes"
        }
      ],
      "name": "PermissionRequested",
      "type": "event"
    },
    {
      "anonymous": false,
      "inputs": [
        {
          "indexed": false,
          "internalType": "uint256",
          "name": "slateID",
          "type": "uint256"
        },
        {
          "indexed": true,
          "internalType": "address",
          "name": "recommender",
          "type": "address"
        },
        {
          "indexed": false,
          "internalType": "uint256[]",
          "name": "requestIDs",
          "type": "uint256[]"
        },
        {
          "indexed": false,
          "internalType": "bytes",
          "name": "metadataHash",
          "type": "bytes"
        }
      ],
      "name": "SlateCreated",
      "type": "event"
    },
    {
      "anonymous": false,
      "inputs": [
        {
          "indexed": false,
          "internalType": "uint256",
          "name": "slateID",
          "type": "uint256"
        },
        {
          "indexed": true,
          "internalType": "address",
          "name": "staker",
          "type": "address"
        },
        {
          "indexed": false,
          "internalType": "uint256",
          "name": "numTokens",
          "type": "uint256"
        }
      ],
      "name": "SlateStaked",
      "type": "event"
    },
    {
      "anonymous": false,
      "inputs": [
        {
          "indexed": true,
          "internalType": "address",
          "name": "voter",
          "type": "address"
        },
        {
          "indexed": false,
          "internalType": "uint256",
          "name": "numTokens",
          "type": "uint256"
        }
      ],
      "name": "VotingTokensDeposited",
      "type": "event"
    },
    {
      "anonymous": false,
      "inputs": [
        {
          "indexed": true,
          "internalType": "address",
          "name": "voter",
          "type": "address"
        },
        {
          "indexed": false,
          "internalType": "uint256",
          "name": "numTokens",
          "type": "uint256"
        }
      ],
      "name": "VotingTokensWithdrawn",
      "type": "event"
    },
    {
      "anonymous": false,
      "inputs": [
        {
          "indexed": true,
          "internalType": "address",
          "name": "voter",
          "type": "address"
        },
        {
          "indexed": false,
          "internalType": "address",
          "name": "delegate",
          "type": "address"
        }
      ],
      "name": "VotingRightsDelegated",
      "type": "event"
    },
    {
      "anonymous": false,
      "inputs": [
        {
          "indexed": true,
          "internalType": "uint256",
          "name": "epochNumber",
          "type": "uint256"
        },
        {
          "indexed": true,
          "internalType": "address",
          "name": "committer",
          "type": "address"
        },
        {
          "indexed": true,
          "internalType": "address",
          "name": "voter",
          "type": "address"
        },
        {
          "indexed": false,
          "internalType": "uint256",
          "name": "numTokens",
          "type": "uint256"
        },
        {
          "indexed": false,
          "internalType": "bytes32",
          "name": "commitHash",
          "type": "bytes32"
        }
      ],
      "name": "BallotCommitted",
      "type": "event"
    },
    {
      "anonymous": false,
      "inputs": [
        {
          "indexed": true,
          "internalType": "uint256",
          "name": "epochNumber",
          "type": "uint256"
        },
        {
          "indexed": true,
          "internalType": "address",
          "name": "voter",
          "type": "address"
        },
        {
          "indexed": false,
          "internalType": "uint256",
          "name": "numTokens",
          "type": "uint256"
        }
      ],
      "name": "BallotRevealed",
      "type": "event"
    },
    {
      "anonymous": false,
      "inputs": [
        {
          "indexed": true,
          "internalType": "uint256",
          "name": "epochNumber",
          "type": "uint256"
        },
        {
          "indexed": true,
          "internalType": "address",
          "name": "resource",
          "type": "address"
        },
        {
          "indexed": false,
          "internalType": "uint256",
          "name": "winningSlate",
          "type": "uint256"
        }
      ],
      "name": "ContestAutomaticallyFinalized",
      "type": "event"
    },
    {
      "anonymous": false,
      "inputs": [
        {
          "indexed": true,
          "internalType": "uint256",
          "name": "epochNumber",
          "type": "uint256"
        },
        {
          "indexed": true,
          "internalType": "address",
          "name": "resource",
          "type": "address"
        }
      ],
      "name": "ContestFinalizedWithoutWinner",
      "type": "event"
    },
    {
      "anonymous": false,
      "inputs": [
        {
          "indexed": true,
          "internalType": "uint256",
          "name": "epochNumber",
          "type": "uint256"
        },
        {
          "indexed": true,
          "internalType": "address",
          "name": "resource",
          "type": "address"
        },
        {
          "indexed": false,
          "internalType": "uint256",
          "name": "winningSlate",
          "type": "uint256"
        },
        {
          "indexed": false,
          "internalType": "uint256",
          "name": "winnerVotes",
          "type": "uint256"
        },
        {
          "indexed": false,
          "internalType": "uint256",
          "name": "totalVotes",
          "type": "uint256"
        }
      ],
      "name": "VoteFinalized",
      "type": "event"
    },
    {
      "anonymous": false,
      "inputs": [
        {
          "indexed": true,
          "internalType": "uint256",
          "name": "epochNumber",
          "type": "uint256"
        },
        {
          "indexed": true,
          "internalType": "address",
          "name": "resource",
          "type": "address"
        },
        {
          "indexed": false,
          "internalType": "uint256",
          "name": "leadingSlate",
          "type": "uint256"
        },
        {
          "indexed": false,
          "internalType": "uint256",
          "name": "leaderVotes",
          "type": "uint256"
        },
        {
          "indexed": false,
          "internalType": "uint256",
          "name": "runnerUpSlate",
          "type": "uint256"
        },
        {
          "indexed": false,
          "internalType": "uint256",
          "name": "runnerUpVotes",
          "type": "uint256"
        },
        {
          "indexed": false,
          "internalType": "uint256",
          "name": "totalVotes",
          "type": "uint256"
        }
      ],
      "name": "VoteFailed",
      "type": "event"
    },
    {
      "anonymous": false,
      "inputs": [
        {
          "indexed": true,
          "internalType": "uint256",
          "name": "epochNumber",
          "type": "uint256"
        },
        {
          "indexed": true,
          "internalType": "address",
          "name": "resource",
          "type": "address"
        },
        {
          "indexed": false,
          "internalType": "uint256",
          "name": "winningSlate",
          "type": "uint256"
        },
        {
          "indexed": false,
          "internalType": "uint256",
          "name": "winnerVotes",
          "type": "uint256"
        },
        {
          "indexed": false,
          "internalType": "uint256",
          "name": "losingSlate",
          "type": "uint256"
        },
        {
          "indexed": false,
          "internalType": "uint256",
          "name": "loserVotes",
          "type": "uint256"
        }
      ],
      "name": "RunoffFinalized",
      "type": "event"
    },
    {
      "anonymous": false,
      "inputs": [
        {
          "indexed": false,
          "internalType": "uint256",
          "name": "slateID",
          "type": "uint256"
        },
        {
          "indexed": true,
          "internalType": "address",
          "name": "staker",
          "type": "address"
        },
        {
          "indexed": false,
          "internalType": "uint256",
          "name": "numTokens",
          "type": "uint256"
        }
      ],
      "name": "StakeWithdrawn",
      "type": "event"
    },
    {
      "constant": false,
      "inputs": [
        {
          "internalType": "int256",
          "name": "amount",
          "type": "int256"
        }
      ],
      "name": "timeTravel",
      "outputs": [],
      "payable": false,
      "stateMutability": "nonpayable",
      "type": "function"
    },
    {
      "constant": false,
      "inputs": [
        {
          "internalType": "address",
          "name": "account",
          "type": "address"
        }
      ],
      "name": "addToWhitelist",
      "outputs": [],
      "payable": false,
      "stateMutability": "nonpayable",
      "type": "function"
    },
    {
      "constant": false,
      "inputs": [
        {
          "internalType": "address",
          "name": "account",
          "type": "address"
        }
      ],
      "name": "removeFromWhitelist",
      "outputs": [],
      "payable": false,
      "stateMutability": "nonpayable",
      "type": "function"
    },
    {
      "constant": true,
      "inputs": [
        {
          "internalType": "address",
          "name": "account",
          "type": "address"
        }
      ],
      "name": "isWhitelisted",
      "outputs": [
        {
          "internalType": "bool",
          "name": "",
          "type": "bool"
        }
      ],
      "payable": false,
      "stateMutability": "view",
      "type": "function"
    }
  ],
  "bytecode": "0x60806040523480156200001157600080fd5b506040516200543c3803806200543c833981016040819052620000349162000150565b8282826001600160a01b03821662000083576040517f08c379a00000000000000000000000000000000000000000000000000000000081526004016200007a9062000240565b60405180910390fd5b600180546001600160a01b0319166001600160a01b03848116919091179091558116620000de576040517f08c379a00000000000000000000000000000000000000000000000000000000081526004016200007a9062000252565b600280546001600160a01b039092166001600160a01b031992831617905560009283556009805490911633908117909155825250600a60205260409020805460ff1916600117905550620002bb915050565b80516200013d8162000296565b92915050565b80516200013d81620002b0565b6000806000606084860312156200016657600080fd5b600062000174868662000143565b9350506020620001878682870162000130565b92505060406200019a8682870162000130565b9150509250925092565b6000620001b360268362000264565b7f506172616d657465722073746f726520616464726573732063616e6e6f74206281527f65207a65726f0000000000000000000000000000000000000000000000000000602082015260400192915050565b600062000214601c8362000264565b7f546f6b656e20616464726573732063616e6e6f74206265207a65726f00000000815260200192915050565b602080825281016200013d81620001a4565b602080825281016200013d8162000205565b90815260200190565b60006200013d8262000287565b60006200013d826200026d565b6001600160a01b031690565b90565b620002a1816200027a565b8114620002ad57600080fd5b50565b620002a18162000293565b61517180620002cb6000396000f3fe608060405234801561001057600080fd5b50600436106102955760003560e01c80637547c7a311610167578063a6a941a8116100ce578063e36aef5b11610087578063e36aef5b146105ca578063e43252d7146105dd578063ea61e1f5146105f0578063fad3d097146105f8578063fc0c546a14610600578063ff0b48a01461060857610295565b8063a6a941a814610543578063aa9354a314610569578063ac4746ab1461057c578063b5d7259c14610584578063bb58aef6146105a4578063c9657441146105b757610295565b8063890357301161012057806389035730146104e55780638ab1d681146104fa5780638fcddad41461050d578063976de81c1461051557806399b2e4851461051d578063a18b65761461053057610295565b80637547c7a31461047857806378e979251461048b5780637b1e4ada146104935780637e378e07146104a657806381d12c58146104ae578063833a7c46146104d257610295565b80633af32abf1161020b57806359a3b0cf116101c457806359a3b0cf1461040f5780635badbe4c146104225780635c19a95c1461042a5780635c632b381461044a578063628746e31461045d5780636903beb41461047057610295565b80633af32abf1461039d5780633b930294146103b057806344f3d2ed146103c35780634d47e7eb146103d657806351018f03146103e95780635245766d146103fc57610295565b80632a459cd81161025d5780632a459cd8146103295780632e75079f1461033e5780632ec1a4c21461035157806330ca60d41461036457806333a5ae291461037757806333b4a66a1461038a57610295565b806312c671021461029a57806314083532146102c35780631418ceb7146102e3578063241b2e421461030357806325d5971f14610316575b600080fd5b6102ad6102a8366004613c74565b61062e565b6040516102ba9190614b23565b60405180910390f35b6102d66102d1366004613c38565b610695565b6040516102ba9190614b15565b6102f66102f1366004613c38565b61088a565b6040516102ba9190614b04565b6102d6610311366004613c38565b610900565b6102d6610324366004613c38565b610a55565b61033c610337366004613c38565b610db6565b005b6102f661034c366004613c74565b610e61565b6102d661035f366004613a5d565b610ed8565b6102ad610372366004613d7a565b610f64565b6102ad610385366004613c04565b610f9a565b61033c610398366004613c74565b61116c565b6102d66103ab366004613a5d565b61144c565b6102ad6103be366004613a5d565b61146a565b61033c6103d1366004613dac565b61147c565b61033c6103e4366004613b1c565b6117a8565b6102ad6103f7366004613aa1565b6119f9565b6102d661040a366004613c74565b611ea9565b61033c61041d366004613cae565b611edb565b6102ad6123b5565b61043d610438366004613a5d565b6123bc565b6040516102ba9190614a09565b6102d6610458366004613c38565b6123d7565b6102ad61046b366004613d7a565b6123ef565b6102ad612490565b6102d6610486366004613c38565b6124c6565b6102ad612890565b6102d66104a1366004613c74565b612896565b6102ad6128cd565b6104c16104bc366004613c38565b6128d4565b6040516102ba959493929190614b31565b6102ad6104e0366004613c74565b6129ac565b6104ed612a3b565b6040516102ba9190614b82565b61033c610508366004613a5d565b612a4a565b6102ad612ac4565b6102ad612aca565b6102d661052b366004613a5d565b612ad1565b6102ad61053e366004613c74565b612b24565b610556610551366004613c74565b612cbe565b6040516102ba9796959493929190614b9e565b6102ad610577366004613c38565b612e61565b6102ad612e88565b610597610592366004613c74565b612e8f565b6040516102ba9190614b90565b6102d66105b2366004613c38565b612eba565b61033c6105c5366004613e0d565b612f17565b61043d6105d8366004613a5d565b612fca565b61033c6105eb366004613a5d565b612fe5565b6102ad613062565b6102d6613069565b6104ed6130fb565b61061b610616366004613c38565b61310a565b6040516102ba9796959493929190614a4d565b60008281526008602090815260408083206001600160a01b038516845290915281206003815460ff16600381111561066257fe5b146106885760405162461bcd60e51b815260040161067f90614e26565b60405180910390fd5b600b015490505b92915050565b600061069f613069565b6106bb5760405162461bcd60e51b815260040161067f90614e06565b6002546040516370a0823160e01b8152339184916001600160a01b03909116906370a08231906106ef908590600401614a17565b60206040518083038186803b15801561070757600080fd5b505afa15801561071b573d6000803e3d6000fd5b505050506040513d601f19601f8201168201806040525061073f9190810190613c56565b101561075d5760405162461bcd60e51b815260040161067f90614d86565b6001600160a01b038116600090815260056020526040902054610786818563ffffffff6131fd16565b6001600160a01b03808416600090815260056020526040908190209290925560025491516323b872dd60e01b81529116906323b872dd906107cf90859030908990600401614a25565b602060405180830381600087803b1580156107e957600080fd5b505af11580156107fd573d6000803e3d6000fd5b505050506040513d601f19601f820116820180604052506108219190810190613be6565b61083d5760405162461bcd60e51b815260040161067f90614c96565b816001600160a01b03167f6cbd40fdcd833ddfcf56a567d6e4a32d50e2c49a8c2467027799f1dab525869d856040516108769190614b23565b60405180910390a26001925050505b919050565b60606004828154811061089957fe5b90600052602060002090600802016003018054806020026020016040519081016040528092919081815260200182805480156108f457602002820191906000526020600020905b8154815260200190600101908083116108e0575b50505050509050919050565b600061090a61320f565b156109275760405162461bcd60e51b815260040161067f90614ea6565b33600081815260056020526040902054838110156109575760405162461bcd60e51b815260040161067f90614e46565b610967818563ffffffff61323d16565b6001600160a01b038084166000908152600560205260409081902092909255600254915163a9059cbb60e01b815291169063a9059cbb906109ae9085908890600401614abc565b602060405180830381600087803b1580156109c857600080fd5b505af11580156109dc573d6000803e3d6000fd5b505050506040513d601f19601f82011682018060405250610a009190810190613be6565b610a1c5760405162461bcd60e51b815260040161067f90614c96565b816001600160a01b03167f5b3e1ece850a15ec1ca5e536337df0960b2f60aea3bf5f8c9ad659860bb2a05f856040516108769190614b23565b6000610a5f612ac4565b8210610a7d5760405162461bcd60e51b815260040161067f90614d06565b610a856135c4565b60048381548110610a9257fe5b600091825260209182902060408051610100808201835260089490940290920180546001600160a01b03168352600180820180548451600293821615909702600019011691909104601f8101879004870286018701909352828552929490938582019390929091830182828015610b4a5780601f10610b1f57610100808354040283529160200191610b4a565b820191906000526020600020905b815481529060010190602001808311610b2d57829003601f168201915b5050505050815260200160038201805480602002602001604051908101604052809291908181526020018280548015610ba257602002820191906000526020600020905b815481526020019060010190808311610b8e575b5050509183525050600482015460209091019060ff166002811115610bc357fe5b6002811115610bce57fe5b815260048201546001600160a01b036101009091048116602083015260058301546040830152600683015460608301526007909201549091166080909101529050600281606001516002811115610c2157fe5b14610c3e5760405162461bcd60e51b815260040161067f90614d16565b80608001516001600160a01b0316336001600160a01b031614610c735760405162461bcd60e51b815260040161067f90614cb6565b60008160a0015111610c975760405162461bcd60e51b815260040161067f90614dc6565b600060048481548110610ca657fe5b6000918252602090912060056008909202010155600254608082015160a083015160405163a9059cbb60e01b81526001600160a01b039093169263a9059cbb92610cf4929091600401614abc565b602060405180830381600087803b158015610d0e57600080fd5b505af1158015610d22573d6000803e3d6000fd5b505050506040513d601f19601f82011682018060405250610d469190810190613be6565b610d625760405162461bcd60e51b815260040161067f90614c96565b80608001516001600160a01b03167f459d5aef2c549903c1eeb1736f5728845d5ccf82537ddd5bf8035795eee89263848360a00151604051610da5929190614c08565b60405180910390a250600192915050565b336000908152600a602052604090205460ff16610de55760405162461bcd60e51b815260040161067f90614e56565b6000811315610e0957600054610e01908263ffffffff61323d16565b600055610e23565b60008054610e1f9183900363ffffffff6131fd16565b6000555b7fa24e118b0d2c671eefb31f6b1008adee06ac4285fa447aaa89b1791d178ff41681600054604051610e56929190614c08565b60405180910390a150565b60008281526008602090815260408083206001600160a01b0385168452825291829020600101805483518184028101840190945280845260609392830182828015610ecb57602002820191906000526020600020905b815481526020019060010190808311610eb7575b5050505050905092915050565b6000336001600160a01b038316811415610f045760405162461bcd60e51b815260040161067f90614e76565b6001600160a01b038181166000818152600660205260409081902080546001600160a01b0319169387169390931790925590517f73644c1eb4dc1f581082649667a542b10269a53a3f2c34b1613a2c1332974ffd90610da5908690614a09565b60008381526008602090815260408083206001600160a01b038616845282528083208484526004019091529020545b9392505050565b6000610fa4613069565b610fc05760405162461bcd60e51b815260040161067f90614e06565b6000825111610fe15760405162461bcd60e51b815260040161067f90614cc6565b336000610fec612490565b9050610ff782612ad1565b6110135760405162461bcd60e51b815260040161067f90614cd6565b600061102961057783600263ffffffff6131fd16565b905061103361361d565b6040518060a00160405280878152602001856001600160a01b0316815260200160001515815260200183815260200184815250905060006110726123b5565b6003805460018101808355600092909252845180519394509192859260049092027fc2575a0e9e593c00f959f8c92f12db2869c3395a3b0502d05e2516446f71f85b01916110c591839160200190613657565b5060208201516001820180546040808601516001600160a01b03199092166001600160a01b039485161760ff60a01b1916600160a01b9215159290920291909117909155606084015160028401556080909301516003909201919091559051908716915085907f192d7a95931e601980bd940dd1f6cb4aca9258c3c63b6af52388d62c65c3f0689061115a9085908c90614efa565b60405180910390a39695505050505050565b611174613069565b6111905760405162461bcd60e51b815260040161067f90614e06565b81611199612490565b116111b65760405162461bcd60e51b815260040161067f90614c66565b60008281526008602090815260408083206001600160a01b038516845290915290206002815460ff1660038111156111ea57fe5b148061120557506001815460ff16600381111561120357fe5b145b6112215760405162461bcd60e51b815260040161067f90614df6565b6001815460ff16600381111561123357fe5b14156112f55760008160020160008154811061124b57fe5b600091825260209091200154905060016004828154811061126857fe5b600091825260209091206004600890920201015460ff16600281111561128a57fe5b1461129157fe5b600b8201819055815460ff191660031782556112ac81613252565b826001600160a01b0316847f2e476b119d4995a2e518f510d00aebce0f2b9f776ec60546ad42c5d83ec675de836040516112e69190614b23565b60405180910390a35050611448565b600a810154156113ff576008810154600a82015461131a82600263ffffffff6133aa16565b1115611395576006820154600b830181905561133590613252565b815460ff19166003178255600b820154600a8301546040516001600160a01b0386169287927f21eb5f233906187642b50e0006cfca3ac360bac832a0042ab128bca17efd92689261138892918791614f1a565b60405180910390a36113f9565b826001600160a01b0316847f6a1388f154098432c9d2fcd47e365e66f674cb5c96ba961049449c2865eaf8658460060154848660070154876009015488600a01546040516113e7959493929190614f6a565b60405180910390a36113f984846133d1565b50611446565b805460ff191660031781556040516001600160a01b0383169084907f91216192172c23a77164f26b25a58d4852dbf26eb8e3190cf63c1c9d72bfd93c90600090a350611448565b505b5050565b6001600160a01b03166000908152600a602052604090205460ff1690565b60056020526000908152604090205481565b60008481526008602090815260408083206001600160a01b038716845290915290206003815460ff1660038111156114b057fe5b146114cd5760405162461bcd60e51b815260040161067f90614e66565b600281015460058201548114156114f65760405162461bcd60e51b815260040161067f90614c86565b816005015484146115195760405162461bcd60e51b815260040161067f90614d36565b600061152b858563ffffffff6131fd16565b90508181111561154d5760405162461bcd60e51b815260040161067f90614c76565b6001546040516312caba8d60e01b81526000916001600160a01b0316906312caba8d9061157c90600401614c16565b60206040518083038186803b15801561159457600080fd5b505afa1580156115a8573d6000803e3d6000fd5b505050506040513d601f19601f820116820180604052506115cc9190810190613a83565b9050600081905060606040518060600160405280602e8152602001615101602e91399050875b8481101561179457600087600201828154811061160b57fe5b9060005260206000200154905060006004828154811061162757fe5b6000918252602090912060089091020190506002600482015460ff16600281111561164e57fe5b1461178a57600581018054600090915580156117885760025460405163095ea7b360e01b81526001600160a01b039091169063095ea7b3906116969089908590600401614abc565b602060405180830381600087803b1580156116b057600080fd5b505af11580156116c4573d6000803e3d6000fd5b505050506040513d601f19601f820116820180604052506116e89190810190613be6565b6117045760405162461bcd60e51b815260040161067f90614eb6565b604051632ab4bf6160e01b81526001600160a01b03871690632ab4bf619061173490309085908a90600401614ad7565b602060405180830381600087803b15801561174e57600080fd5b505af1158015611762573d6000803e3d6000fd5b505050506040513d601f19601f820116820180604052506117869190810190613be6565b505b505b50506001016115f2565b505050506005909201919091555050505050565b60006117b2612490565b90506117bc61320f565b6117d85760405162461bcd60e51b815260040161067f90614c36565b6117e28185611ea9565b156117ff5760405162461bcd60e51b815260040161067f90614d46565b8261181c5760405162461bcd60e51b815260040161067f90614ce6565b336001600160a01b03851681146118a6576001600160a01b038086166000908152600660205260409020548282169116146118695760405162461bcd60e51b815260040161067f90614e96565b6001600160a01b0385166000908152600560205260409020548311156118a15760405162461bcd60e51b815260040161067f90614e86565b6118fe565b6001600160a01b0385166000908152600560205260409020548311156118fe576001600160a01b0385166000908152600560205260408120546118f090859063ffffffff61323d16565b90506118fb81610695565b50505b6001600160a01b03851660009081526005602052604090205483111561192057fe5b60008281526008602052604090206119366136d5565b5060408051608081018252868152602080820187815260018385018181526000606086018181526001600160a01b03808f168084526002808c0190985292899020885181559551948601949094559151939094018054915115156101000261ff001994151560ff199093169290921793909316179091559251919290919085169086907f687b8d3fbd3b913b4db1fa4656e72066ae63e742d289065f027895f40817c30a906119e8908a908c90614c08565b60405180910390a450505050505050565b6000611a03613069565b611a1f5760405162461bcd60e51b815260040161067f90614e06565b611a2884612ad1565b611a445760405162461bcd60e51b815260040161067f90614cd6565b6000825111611a655760405162461bcd60e51b815260040161067f90614cc6565b6000611a6f612490565b9050611a796135c4565b506040805161010081018252338152602081018590529081018590526000606082018190526080820181905260a0820181905260c082018390526001600160a01b03871660e0830152611aca612ac4565b6004805460018101808355600092909252845160089091027f8a35acfbc15ff81a39ae7d344fd709f28e8600b4aa8c65c6b64bfe7fe36bd19b810180546001600160a01b039093166001600160a01b0319909316929092178255602080870151805195965093948794611b61937f8a35acfbc15ff81a39ae7d344fd709f28e8600b4aa8c65c6b64bfe7fe36bd19c01920190613657565b5060408201518051611b7d9160038401916020909101906136fc565b50606082015160048201805460ff19166001836002811115611b9b57fe5b02179055506080820151600482018054610100600160a81b0319166101006001600160a01b039384160217905560a0830151600583015560c0830151600683015560e090920151600790910180546001600160a01b031916919092161790555060005b8651811015611e2a576000878281518110611c1557fe5b60200260200101519050611c276123b5565b8110611c455760405162461bcd60e51b815260040161067f90614da6565b611c4d61361d565b60038281548110611c5a57fe5b600091825260209182902060408051600493909302909101805460026001821615610100026000190190911604601f8101859004909402830160c090810190925260a0830184815292939092849290918491840182828015611cfd5780601f10611cd257610100808354040283529160200191611cfd565b820191906000526020600020905b815481529060010190602001808311611ce057829003601f168201915b505050918352505060018201546001600160a01b03808216602080850191909152600160a01b90920460ff1615156040840152600284015460608401526003909301546080909201919091528201519192508b8116911614611d715760405162461bcd60e51b815260040161067f90614c46565b85816080015114611d945760405162461bcd60e51b815260040161067f90614e16565b60048481548110611da157fe5b600091825260208083208584526002600890930201919091019052604090205460ff1615611de15760405162461bcd60e51b815260040161067f90614ca6565b600160048581548110611df057fe5b600091825260208083209583526008919091029094016002019093526040909220805460ff19169215159290921790915550600101611bfe565b5060008381526008602090815260408083206001600160a01b038b1684528252808320600190810180549182018155845291909220018290555133907f546770407dbaa50113343a365d7196de598ff0b2b4e9a1f46c0f8e9ae0f44df190611e979084908a908a90614ec6565b60405180910390a29695505050505050565b60009182526008602090815260408084206001600160a01b039390931684526002928301909152909120015460ff1690565b6000611ef6611ee988612e61565b429063ffffffff61323d16565b9050626ebe008110801590611f0d57506277f88081105b611f295760405162461bcd60e51b815260040161067f90614e36565b6001600160a01b038616611f4f5760405162461bcd60e51b815260040161067f90614dd6565b8351855114611f705760405162461bcd60e51b815260040161067f90614d76565b8251845114611f915760405162461bcd60e51b815260040161067f90614d76565b611f9b8787611ea9565b611fb75760405162461bcd60e51b815260040161067f90614c26565b611fc18787612896565b15611fde5760405162461bcd60e51b815260040161067f90614d66565b845160609060005b818110156120585782888281518110611ffb57fe5b602002602001015188838151811061200f57fe5b602002602001015188848151811061202357fe5b602002602001015160405160200161203e94939291906149a3565b60408051601f198184030181529190529250600101611fe6565b50818460405160200161206c9291906149e7565b60408051601f19818403018152918152815160208084019190912060008d81526008909252919020919350906120a06136d5565b506001600160a01b038a166000908152600280830160209081526040928390208351608081018552815480825260018301549382019390935292015460ff8082161515948401949094526101009004909216151560608201529083146121185760405162461bcd60e51b815260040161067f90614de6565b60005b8481101561233c5760008b828151811061213157fe5b602002602001015190506000846000016000836001600160a01b03166001600160a01b03168152602001908152602001600020905060008c848151811061217457fe5b6020026020010151905060008c858151811061218c57fe5b60200260200101519050600160028111156121a357fe5b600483815481106121b057fe5b600091825260209091206004600890920201015460ff1660028111156121d257fe5b141561232c576000828152600484016020908152604090912090870151600a8501546122039163ffffffff6131fd16565b600a85015560208701518154600091612222919063ffffffff6131fd16565b9050846006015484141561223c5760088501819055612285565b846008015481111561226a576006850180546007870155600886018054600988015590859055819055612285565b84600901548111156122855760078501849055600985018190555b80825560016004848154811061229757fe5b600091825260209091206004600890920201015460ff1660028111156122b957fe5b141561232957600083815260048601602090815260409091209089015160028201546122ea9163ffffffff6131fd16565b60028201556020808a01516000868152600186019092526040909120546123169163ffffffff6131fd16565b6000858152600185016020526040902055505b50505b50506001909201915061211b9050565b506001600160a01b038b16600081815260028085016020908152604092839020909101805461ff00191661010017905583015190518e917f92aa45cfae2a3f3f7f8b572c5b71c307a6c71804157ed25bf7e1e1f50eaffee09161239f9190614b23565b60405180910390a3505050505050505050505050565b6003545b90565b6006602052600090815260409020546001600160a01b031681565b60086020526000908152604090206001015460ff1681565b60008381526008602090815260408083206001600160a01b03861684529091528120600281015482805b8281101561248557600084600201828154811061243257fe5b9060005260206000200154905086811461247c57600081815260048601602090815260408083208a8452600181019092529091205461247890859063ffffffff6131fd16565b9350505b50600101612419565b509695505050505050565b6000806124a86000544261323d90919063ffffffff16565b905060006124bf826277f88063ffffffff6135a216565b9250505090565b60006124d0613069565b6124ec5760405162461bcd60e51b815260040161067f90614e06565b6124f4612ac4565b82106125125760405162461bcd60e51b815260040161067f90614d06565b60006004838154811061252157fe5b600091825260209091206004600890920201015460ff16600281111561254357fe5b146125605760405162461bcd60e51b815260040161067f90614db6565b6001546040516362ed9ba160e11b815233916000916001600160a01b039091169063c5db37429061259390600401614cf6565b60206040518083038186803b1580156125ab57600080fd5b505afa1580156125bf573d6000803e3d6000fd5b505050506040513d601f19601f820116820180604052506125e39190810190613c56565b6002546040516370a0823160e01b815291925082916001600160a01b03909116906370a0823190612618908690600401614a09565b60206040518083038186803b15801561263057600080fd5b505afa158015612644573d6000803e3d6000fd5b505050506040513d601f19601f820116820180604052506126689190810190613c56565b10156126865760405162461bcd60e51b815260040161067f90614d86565b60006004858154811061269557fe5b6000918252602090912060089091020160078101549091506126bf906001600160a01b0316612ad1565b6126db5760405162461bcd60e51b815260040161067f90614cd6565b60006126e5612490565b9050808260060154146126f457fe5b600482810180546005850186905560ff196001600160a01b0388811661010002610100600160a81b031990931692909217166001179091556002546040516323b872dd60e01b81529116916323b872dd916127559188913091899101614a25565b602060405180830381600087803b15801561276f57600080fd5b505af1158015612783573d6000803e3d6000fd5b505050506040513d601f19601f820116820180604052506127a79190810190613be6565b6127c35760405162461bcd60e51b815260040161067f90614c96565b6006820154600090815260086020908152604080832060078601546001600160a01b03168452825282206002810180546001810182559084529190922001879055612810611ee983612e61565b60038201556002810154600181141561283357815460ff1916600117825561283f565b815460ff191660021782555b856001600160a01b03167f9a2d3eee29dce19901568d3274ea0ff6ca11a119ff88758d8ad4ec5eef5e42ea898760405161287a929190614c08565b60405180910390a2506001979650505050505050565b60005481565b60009182526008602090815260408084206001600160a01b0393909316845260029283019091529091200154610100900460ff1690565b6265838081565b600381815481106128e157fe5b60009182526020918290206004919091020180546040805160026001841615610100026000190190931692909204601f81018590048502830185019091528082529193509183919083018282801561297a5780601f1061294f5761010080835404028352916020019161297a565b820191906000526020600020905b81548152906001019060200180831161295d57829003601f168201915b505050506001830154600284015460039094015492936001600160a01b03821693600160a01b90920460ff1692509085565b60006129b66136d5565b5060008381526008602090815260408083206001600160a01b038616845260029081018352928190208151608081018352815481526001820154938101939093529092015460ff8082161515938301849052610100909104161515606082015290612a335760405162461bcd60e51b815260040161067f90614d26565b519392505050565b6001546001600160a01b031681565b6009546001600160a01b03163314612a745760405162461bcd60e51b815260040161067f90614c56565b6001600160a01b0381166000908152600a602052604090819020805460ff19169055517fcdd2e9b91a56913d370075169cefa1602ba36be5301664f752192bb1709df75790610e56908390614a09565b60045490565b626ebe0081565b600080612adc612490565b90506000612afc62093a80612af084612e61565b9063ffffffff6131fd16565b90506000612b0a8386612b24565b9050428211158015612b1b57508042105b95945050505050565b6000612b2e613736565b60008481526008602090815260408083206001600160a01b038716845290915290819020815161016081019092528054829060ff166003811115612b6e57fe5b6003811115612b7957fe5b815260200160018201805480602002602001604051908101604052809291908181526020018280548015612bcc57602002820191906000526020600020905b815481526020019060010190808311612bb8575b5050505050815260200160028201805480602002602001604051908101604052809291908181526020018280548015612c2457602002820191906000526020600020905b815481526020019060010190808311612c10575b50505050508152602001600382015481526020016005820154815260200160068201548152602001600782015481526020016008820154815260200160098201548152602001600a8201548152602001600b8201548152505090506000612caf6002612ca362093a80600b0285606001516131fd90919063ffffffff16565b9063ffffffff6135a216565b9050612b1b81612af087612e61565b6000606080600080600080612cd1613736565b60008a81526008602090815260408083206001600160a01b038d16845290915290819020815161016081019092528054829060ff166003811115612d1157fe5b6003811115612d1c57fe5b815260200160018201805480602002602001604051908101604052809291908181526020018280548015612d6f57602002820191906000526020600020905b815481526020019060010190808311612d5b575b5050505050815260200160028201805480602002602001604051908101604052809291908181526020018280548015612dc757602002820191906000526020600020905b815481526020019060010190808311612db3575b50505050508152602001600382015481526020016005820154815260200160068201548152602001600782015481526020016008820154815260200160098201548152602001600a8201548152602001600b820154815250509050806000015197508060200151965080604001519550806060015194508060a0015193508060c00151925080610140015191505092959891949750929550565b600061068f612e796277f8808463ffffffff6133aa16565b6000549063ffffffff6131fd16565b6277f88081565b60009182526008602090815260408084206001600160a01b0393909316845291905290205460ff1690565b600060038281548110612ec957fe5b906000526020600020906004020160010160149054906101000a900460ff16801561068f575060038281548110612efc57fe5b90600052602060002090600402016002015442109050919050565b8251815181148015612f2a575083518351145b612f465760405162461bcd60e51b815260040161067f90614d96565b60005b81811015612fc2576060806060868481518110612f6257fe5b6020026020010151806020019051612f7d9190810190613b5f565b925092509250612fb789898681518110612f9357fe5b60200260200101518585858b8a81518110612faa57fe5b6020026020010151611edb565b505050600101612f49565b505050505050565b6007602052600090815260409020546001600160a01b031681565b6009546001600160a01b0316331461300f5760405162461bcd60e51b815260040161067f90614c56565b6001600160a01b0381166000908152600a602052604090819020805460ff19166001179055517fa850ae9193f515cbae8d35e8925bd2be26627fc91bce650b8652ed254e9cab0390610e56908390614a09565b62093a8081565b6001546040516312caba8d60e01b815260009130916001600160a01b03909116906312caba8d9061309c90600401614d56565b60206040518083038186803b1580156130b457600080fd5b505afa1580156130c8573d6000803e3d6000fd5b505050506040513d601f19601f820116820180604052506130ec9190810190613a83565b6001600160a01b031614905090565b6002546001600160a01b031681565b6004818154811061311757fe5b600091825260209182902060089091020180546001808301805460408051601f60026000199685161561010002969096019093169490940491820187900487028401870190528083526001600160a01b0390931695509293909291908301828280156131c45780601f10613199576101008083540402835291602001916131c4565b820191906000526020600020905b8154815290600101906020018083116131a757829003601f168201915b505050600484015460058501546006860154600790960154949560ff8316956001600160a01b0361010090940484169550919350911687565b600082820183811015610f9357600080fd5b600080613220611ee9610577612490565b90506265838081108015906132375750626ebe0081105b91505090565b60008282111561324c57600080fd5b50900390565b60006004828154811061326157fe5b600091825260208083206004600890930201918201805460ff1916600217905581546007808401546001600160a01b03908116865292526040909320549193509182169116146132e25780546007808301546001600160a01b039081166000908152602092909252604090912080546001600160a01b031916919092161790555b60608160030180548060200260200160405190810160405280929190818152602001828054801561333257602002820191906000526020600020905b81548152602001906001019080831161331e575b50939450600093505050505b81518110156133a457600082828151811061335557fe5b6020026020010151905060016003828154811061336e57fe5b906000526020600020906004020160010160146101000a81548160ff02191690831515021790555050808060010191505061333e565b50505050565b6000826133b95750600061068f565b828202828482816133c657fe5b0414610f9357600080fd5b6133d9613069565b6133f55760405162461bcd60e51b815260040161067f90614e06565b60008281526008602090815260408083206001600160a01b03851684528252808320600681015460078201548186526004830185528386208187528487208388526001808301885286892054908201909752948720546002820154949793969295919491939261347d929091613471919063ffffffff61323d16565b9063ffffffff61323d16565b600085815260018085016020908152604080842054928801909152822054600286015493945091926134b992613471919063ffffffff61323d16565b905060006134d48389600801546131fd90919063ffffffff16565b905060006134ef838a600901546131fd90919063ffffffff16565b905060008080808486118061350d5750848614801561350d57508a8c105b1561352257508a92508491508990508361352e565b508992508391508a9050845b600b8d018490558c5460ff19166003178d5561354984613252565b8d6001600160a01b03168f7f4cd6f9ddedfe8318d39b24c7a438e73dc1cef1bc9da6e732ff5b01d1f4e9f7f7868686866040516135899493929190614f35565b60405180910390a3505050505050505050505050505050565b60008082116135b057600080fd5b60008284816135bb57fe5b04949350505050565b60405180610100016040528060006001600160a01b031681526020016060815260200160608152602001600060028111156135fb57fe5b8152600060208201819052604082018190526060820181905260809091015290565b6040518060a001604052806060815260200160006001600160a01b0316815260200160001515815260200160008152602001600081525090565b828054600181600116156101000203166002900490600052602060002090601f016020900481019282601f1061369857805160ff19168380011785556136c5565b828001600101855582156136c5579182015b828111156136c55782518255916020019190600101906136aa565b506136d1929150613791565b5090565b60408051608081018252600080825260208201819052918101829052606081019190915290565b8280548282559060005260206000209081019282156136c557916020028201828111156136c55782518255916020019190600101906136aa565b6040805161016081019091528060008152602001606081526020016060815260200160008152602001600081526020016000815260200160008152602001600081526020016000815260200160008152602001600081525090565b6123b991905b808211156136d15760008155600101613797565b803561068f816150da565b805161068f816150da565b600082601f8301126137d257600080fd5b81516137e56137e082614fb8565b614f92565b9150818183526020840193506020810190508385602084028201111561380a57600080fd5b60005b83811015613836578161382088826137b6565b845250602092830192919091019060010161380d565b5050505092915050565b600082601f83011261385157600080fd5b813561385f6137e082614fb8565b9150818183526020840193506020810190508385602084028201111561388457600080fd5b60005b83811015613836578161389a88826137ab565b8452506020928301929190910190600101613887565b600082601f8301126138c157600080fd5b81356138cf6137e082614fb8565b81815260209384019390925082018360005b8381101561383657813586016138f78882613a03565b84525060209283019291909101906001016138e1565b600082601f83011261391e57600080fd5b815161392c6137e082614fb8565b9150818183526020840193506020810190508385602084028201111561395157600080fd5b60005b8381101561383657816139678882613a52565b8452506020928301929190910190600101613954565b600082601f83011261398e57600080fd5b813561399c6137e082614fb8565b915081818352602084019350602081019050838560208402820111156139c157600080fd5b60005b8381101561383657816139d788826139f8565b84525060209283019291909101906001016139c4565b805161068f816150ee565b803561068f816150f7565b600082601f830112613a1457600080fd5b8135613a226137e082614fd8565b91508082526020830160208301858383011115613a3e57600080fd5b613a4983828461506a565b50505092915050565b805161068f816150f7565b600060208284031215613a6f57600080fd5b6000613a7b84846137ab565b949350505050565b600060208284031215613a9557600080fd5b6000613a7b84846137b6565b600080600060608486031215613ab657600080fd5b6000613ac286866137ab565b93505060208401356001600160401b03811115613ade57600080fd5b613aea8682870161397d565b92505060408401356001600160401b03811115613b0657600080fd5b613b1286828701613a03565b9150509250925092565b600080600060608486031215613b3157600080fd5b6000613b3d86866137ab565b9350506020613b4e868287016139f8565b9250506040613b12868287016139f8565b600080600060608486031215613b7457600080fd5b83516001600160401b03811115613b8a57600080fd5b613b96868287016137c1565b93505060208401516001600160401b03811115613bb257600080fd5b613bbe8682870161390d565b92505060408401516001600160401b03811115613bda57600080fd5b613b128682870161390d565b600060208284031215613bf857600080fd5b6000613a7b84846139ed565b600060208284031215613c1657600080fd5b81356001600160401b03811115613c2c57600080fd5b613a7b84828501613a03565b600060208284031215613c4a57600080fd5b6000613a7b84846139f8565b600060208284031215613c6857600080fd5b6000613a7b8484613a52565b60008060408385031215613c8757600080fd5b6000613c9385856139f8565b9250506020613ca4858286016137ab565b9150509250929050565b60008060008060008060c08789031215613cc757600080fd5b6000613cd389896139f8565b9650506020613ce489828a016137ab565b95505060408701356001600160401b03811115613d0057600080fd5b613d0c89828a01613840565b94505060608701356001600160401b03811115613d2857600080fd5b613d3489828a0161397d565b93505060808701356001600160401b03811115613d5057600080fd5b613d5c89828a0161397d565b92505060a0613d6d89828a016139f8565b9150509295509295509295565b600080600060608486031215613d8f57600080fd5b6000613d9b86866139f8565b9350506020613b4e868287016137ab565b60008060008060808587031215613dc257600080fd5b6000613dce87876139f8565b9450506020613ddf878288016137ab565b9350506040613df0878288016139f8565b9250506060613e01878288016139f8565b91505092959194509250565b60008060008060808587031215613e2357600080fd5b6000613e2f87876139f8565b94505060208501356001600160401b03811115613e4b57600080fd5b613e5787828801613840565b93505060408501356001600160401b03811115613e7357600080fd5b613e7f878288016138b0565b92505060608501356001600160401b03811115613e9b57600080fd5b613e018782880161397d565b6000613eb38383613f46565b505060200190565b613ec481615042565b82525050565b613ec481615012565b613ec4613edf82615012565b6150a2565b6000613eef82615005565b613ef98185615009565b9350613f0483614fff565b8060005b83811015613f32578151613f1c8882613ea7565b9750613f2783614fff565b925050600101613f08565b509495945050505050565b613ec48161501d565b613ec4816123b9565b6000613f5a82615005565b613f648185615009565b9350613f74818560208601615076565b613f7d816150b3565b9093019392505050565b6000613f9282615005565b613f9c8185610885565b9350613fac818560208601615076565b9290920192915050565b613ec481615049565b613ec481615054565b613ec48161505f565b6000613fde601483615009565b737374616b65446f6e6174696f6e4164647265737360601b815260200192915050565b600061400e601783615009565b7f566f74657220686173206e6f7420636f6d6d6974746564000000000000000000815260200192915050565b6000614047601883615009565b7f436f6d6d697420706572696f64206e6f74206163746976650000000000000000815260200192915050565b6000614080601783615009565b7f5265736f7572636520646f6573206e6f74206d61746368000000000000000000815260200192915050565b60006140b9600a83615009565b6927b7363c9037bbb732b960b11b815260200192915050565b60006140df601a83615009565b7f436f6e746573742065706f6368207374696c6c20616374697665000000000000815260200192915050565b6000614118601183615009565b70092dcecc2d8d2c840cadcc840d2dcc8caf607b1b815260200192915050565b6000614145601283615009565b71105b1b081cdd185ad95cc8191bdb985d195960721b815260200192915050565b6000614173601983615009565b7f4661696c656420746f207472616e7366657220746f6b656e7300000000000000815260200192915050565b60006141ac602283615009565b7f4475706c696361746520726571756573747320617265206e6f7420616c6c6f77815261195960f21b602082015260400192915050565b60006141f0603083615009565b7f4f6e6c7920746865206f726967696e616c207374616b65722063616e2077697481526f68647261772074686973207374616b6560801b602082015260400192915050565b6000614242601c83615009565b7f6d65746164617461486173682063616e6e6f7420626520656d70747900000000815260200192915050565b600061427b601c83615009565b7f5375626d697373696f6e20706572696f64206e6f742061637469766500000000815260200192915050565b60006142b4601783615009565b7f43616e6e6f7420636f6d6d6974207a65726f2068617368000000000000000000815260200192915050565b60006142ed601083615009565b6f1cdb185d1954dd185ad9505b5bdd5b9d60821b815260200192915050565b6000614319602183615009565b7f4e6f20736c617465206578697374732077697468207468617420736c617465498152601160fa1b602082015260400192915050565b600061435c601b83615009565b7f536c61746520686173206e6f74206265656e2061636365707465640000000000815260200192915050565b6000614395602783615009565b7f566f74657220686173206e6f7420636f6d6d697474656420666f7220746869738152660818985b1b1bdd60ca1b602082015260400192915050565b60006143de601383615009565b72092dcecc2d8d2c840e6e8c2e4e840d2dcc8caf606b1b815260200192915050565b600061440d602b83615009565b7f566f7465722068617320616c726561647920636f6d6d697474656420666f722081526a1d1a1a5cc818985b1b1bdd60aa1b602082015260400192915050565b600061445a601183615009565b70676174656b65657065724164647265737360781b815260200192915050565b6000614487601a83615009565b7f566f7465722068617320616c72656164792072657665616c6564000000000000815260200192915050565b60006144c0602483615009565b7f416c6c20696e70757473206d7573742068617665207468652073616d65206c658152630dccee8d60e31b602082015260400192915050565b6000614506601a83615009565b7f496e73756666696369656e7420746f6b656e2062616c616e6365000000000000815260200192915050565b600061453f602083615009565b7f496e70757473206d7573742068617665207468652073616d65206c656e677468815260200192915050565b6000614578601183615009565b70125b9d985b1a59081c995c5d595cdd1251607a1b815260200192915050565b60006145a5601d83615009565b7f536c6174652068617320616c7265616479206265656e207374616b6564000000815260200192915050565b60006145de602083615009565b7f5374616b652068617320616c7265616479206265656e2077697468647261776e815260200192915050565b6000614617601c83615009565b7f566f74657220616464726573732063616e6e6f74206265207a65726f00000000815260200192915050565b6000614650602a83615009565b7f5375626d69747465642062616c6c6f7420646f6573206e6f74206d617463682081526918dbdb5b5a5d1b595b9d60b21b602082015260400192915050565b600061469c604c83615009565b7f456974686572206e6f20636f6e7465737420697320696e2070726f677265737381527f20666f722074686973207265736f757263652c206f722069742068617320626560208201526b195b88199a5b985b1a5e995960a21b604082015260600192915050565b6000614710601683615009565b752737ba1031bab93932b73a1033b0ba32b5b2b2b832b960511b815260200192915050565b6000614742600d83615009565b6c092dcecc2d8d2c840cae0dec6d609b1b815260200192915050565b600061476b601983615009565b7f566f7465206973206e6f742066696e616c697a65642079657400000000000000815260200192915050565b60006147a4601883615009565b7f52657665616c20706572696f64206e6f74206163746976650000000000000000815260200192915050565b60006147dd601f83615009565b7f496e73756666696369656e7420766f746520746f6b656e2062616c616e636500815260200192915050565b6000614816601083615009565b6f13db9b1e481dda1a5d195b1a5cdd195960821b815260200192915050565b6000614842601883615009565b7f436f6e74657374206973206e6f742066696e616c697a65640000000000000000815260200192915050565b600061487b602283615009565b7f44656c656761746520616e6420766f7465722063616e6e6f7420626520657175815261185b60f21b602082015260400192915050565b60006148bf601383615009565b72496e73756666696369656e7420746f6b656e7360681b815260200192915050565b60006148ee600e83615009565b6d4e6f7420612064656c656761746560901b815260200192915050565b6000614918601b83615009565b7f546f6b656e73206c6f636b656420647572696e6720766f74696e670000000000815260200192915050565b6000614951602c83615009565b7f4661696c656420746f20617070726f766520476174656b656570657220746f2081526b7370656e6420746f6b656e7360a01b602082015260400192915050565b613ec461499e826123b9565b6123b9565b60006149af8287613f87565b91506149bb8286613ed3565b6014820191506149cb8285614992565b6020820191506149db8284614992565b50602001949350505050565b60006149f38285613f87565b91506149ff8284614992565b5060200192915050565b6020810161068f8284613eca565b6020810161068f8284613ebb565b60608101614a338286613eca565b614a406020830185613eca565b613a7b6040830184613f46565b60e08101614a5b828a613eca565b8181036020830152614a6d8189613f4f565b9050614a7c6040830188613fc8565b614a896060830187613eca565b614a966080830186613f46565b614aa360a0830185613f46565b614ab060c0830184613eca565b98975050505050505050565b60408101614aca8285613eca565b610f936020830184613f46565b60608101614ae58286613eca565b614af26020830185613f46565b8181036040830152612b1b8184613f4f565b60208082528101610f938184613ee4565b6020810161068f8284613f3d565b6020810161068f8284613f46565b60a08082528101614b428188613f4f565b9050614b516020830187613eca565b614b5e6040830186613f3d565b614b6b6060830185613f46565b614b786080830184613f46565b9695505050505050565b6020810161068f8284613fb6565b6020810161068f8284613fbf565b60e08101614bac828a613fbf565b8181036020830152614bbe8189613ee4565b90508181036040830152614bd28188613ee4565b9050614be16060830187613f46565b614bee6080830186613f46565b614bfb60a0830185613f46565b614ab060c0830184613f46565b60408101614aca8285613f46565b6020808252810161068f81613fd1565b6020808252810161068f81614001565b6020808252810161068f8161403a565b6020808252810161068f81614073565b6020808252810161068f816140ac565b6020808252810161068f816140d2565b6020808252810161068f8161410b565b6020808252810161068f81614138565b6020808252810161068f81614166565b6020808252810161068f8161419f565b6020808252810161068f816141e3565b6020808252810161068f81614235565b6020808252810161068f8161426e565b6020808252810161068f816142a7565b6020808252810161068f816142e0565b6020808252810161068f8161430c565b6020808252810161068f8161434f565b6020808252810161068f81614388565b6020808252810161068f816143d1565b6020808252810161068f81614400565b6020808252810161068f8161444d565b6020808252810161068f8161447a565b6020808252810161068f816144b3565b6020808252810161068f816144f9565b6020808252810161068f81614532565b6020808252810161068f8161456b565b6020808252810161068f81614598565b6020808252810161068f816145d1565b6020808252810161068f8161460a565b6020808252810161068f81614643565b6020808252810161068f8161468f565b6020808252810161068f81614703565b6020808252810161068f81614735565b6020808252810161068f8161475e565b6020808252810161068f81614797565b6020808252810161068f816147d0565b6020808252810161068f81614809565b6020808252810161068f81614835565b6020808252810161068f8161486e565b6020808252810161068f816148b2565b6020808252810161068f816148e1565b6020808252810161068f8161490b565b6020808252810161068f81614944565b60608101614ed48286613f46565b8181036020830152614ee68185613ee4565b90508181036040830152612b1b8184613f4f565b60408101614f088285613f46565b8181036020830152613a7b8184613f4f565b60608101614f288286613f46565b614a406020830185613f46565b60808101614f438287613f46565b614f506020830186613f46565b614f5d6040830185613f46565b612b1b6060830184613f46565b60a08101614f788288613f46565b614f856020830187613f46565b614b5e6040830186613f46565b6040518181016001600160401b0381118282101715614fb057600080fd5b604052919050565b60006001600160401b03821115614fce57600080fd5b5060209081020190565b60006001600160401b03821115614fee57600080fd5b506020601f91909101601f19160190565b60200190565b5190565b90815260200190565b600061068f82615036565b151590565b80610885816150c3565b80610885816150d0565b6001600160a01b031690565b600061068f825b600061068f82615012565b600061068f82615022565b600061068f8261502c565b82818337506000910152565b60005b83811015615091578181015183820152602001615079565b838111156133a45750506000910152565b600061068f82600061068f826150bd565b601f01601f191690565b60601b90565b600481106150cd57fe5b50565b600381106150cd57fe5b6150e381615012565b81146150cd57600080fd5b6150e38161501d565b6150e3816123b956fe516d6570786568344b566b79485967743376546a6d6f644235524b5a6755456d646f68425a33376f4b584355436da365627a7a723158204fb1c2bad4f2546a430da750a83730b8719ad17c353bd982b868efb6243df4b86c6578706572696d656e74616cf564736f6c634300050b0040",
  "source": "pragma solidity ^0.5.0;\npragma experimental ABIEncoderV2;\n\n\nimport \"../Gatekeeper.sol\";\nimport \"../ParameterStore.sol\";\n\n/**\n @dev An owned gatekeeper that lets the owner change the startTime\n*/\ncontract TimeTravelingGatekeeper is Gatekeeper {\n    address owner;\n    mapping(address => bool) whitelisted;\n    int256 timeOffset;\n\n    event TimeTraveled(int256 amount, uint256 startTime);\n    event AddedToWhitelist(address account);\n    event RemovedFromWhitelist(address account);\n\n    constructor(uint _startTime, ParameterStore _parameters, IERC20 _token)\n        Gatekeeper(_startTime, _parameters, _token) public {\n\n        owner = msg.sender;\n        whitelisted[msg.sender] = true;\n    }\n\n    /**\n    * @dev Move forward or backward in the epoch by adjusting the start time. Positive numbers move\n    * into the future, while negative numbers move into the past. Only whitelisted accounts can call\n    * this.\n    * @param amount The number of seconds to shift by\n     */\n    function timeTravel(int256 amount) public {\n        require(whitelisted[msg.sender], \"Only whitelisted\");\n\n        if (amount > 0) {\n            startTime = startTime.sub(uint256(amount));\n        } else {\n            startTime = startTime.add(uint256(-amount));\n        }\n        emit TimeTraveled(amount, startTime);\n    }\n\n    function addToWhitelist(address account) public {\n        require(msg.sender == owner, \"Only owner\");\n\n        whitelisted[account] = true;\n\n        emit AddedToWhitelist(account);\n    }\n\n    function removeFromWhitelist(address account) public {\n        require(msg.sender == owner, \"Only owner\");\n\n        whitelisted[account] = false;\n\n        emit RemovedFromWhitelist(account);\n    }\n\n    function isWhitelisted(address account) public view returns(bool) {\n        return whitelisted[account];\n    }\n}\n",
  "sourcePath": "/Users/kangarang/Desktop/Projects/panvala/governance-contracts/contracts/dev/TimeTravelingGatekeeper.sol",
  "compiler": {
    "name": "solc",
    "version": "0.5.11+commit.c082d0b4.Emscripten.clang"
  },
  "schemaVersion": "3.0.11",
  "updatedAt": "2019-08-22T04:00:08.817Z",
  "devdoc": {
    "details": "An owned gatekeeper that lets the owner change the startTime",
    "methods": {
      "commitBallot(address,bytes32,uint256)": {
        "details": "Submit a commitment for the current ballot",
        "params": {
          "commitHash": "The hash representing the voter's vote choices",
          "numTokens": "The number of vote tokens to use",
          "voter": "The voter to commit for"
        }
      },
      "contestDetails(uint256,address)": {
        "details": "Get the details of the specified contest"
      },
      "contestSlates(uint256,address)": {
        "details": "Return the IDs of the slates (staked and unstaked) associated with the contest"
      },
      "contestStatus(uint256,address)": {
        "details": "Return the status of the specified contest"
      },
      "currentEpochNumber()": {
        "details": "Get the number of the current epoch."
      },
      "delegateVotingRights(address)": {
        "details": "Set a delegate account that can vote on behalf of the voter",
        "params": {
          "_delegate": "The account being delegated to"
        }
      },
      "depositVoteTokens(uint256)": {
        "details": "Deposit `numToken` tokens into the Gatekeeper to use in voting Assumes that `msg.sender` has approved the Gatekeeper to spend on their behalf",
        "params": {
          "numTokens": "The number of tokens to devote to voting"
        }
      },
      "didCommit(uint256,address)": {
        "details": "Return true if the voter has committed for the given epoch",
        "params": {
          "epochNumber": "The epoch to check",
          "voter": "The voter's address"
        }
      },
      "didReveal(uint256,address)": {
        "details": "Return true if the voter has revealed for the given epoch",
        "params": {
          "epochNumber": "The epoch",
          "voter": "The voter's address"
        }
      },
      "donateChallengerStakes(uint256,address,uint256,uint256)": {
        "details": "Send tokens of the rejected slates to the token capacitor.",
        "params": {
          "epochNumber": "The epoch",
          "resource": "The resource"
        }
      },
      "epochStart(uint256)": {
        "details": "Get the start of the given epoch."
      },
      "finalizeContest(uint256,address)": {
        "details": "Finalize contest, triggering a vote count if necessary, and update the status of the contest. If there is a single slate, it automatically wins. Otherwise, count votes. Count the first choice votes for each slate. If a slate has more than 50% of the votes, then it wins and the vote is finalized. Otherwise, wait for a runoff. If no votes are counted, finalize without a winner.",
        "params": {
          "epochNumber": "The epoch",
          "resource": "The resource to finalize for"
        }
      },
      "getCommitHash(uint256,address)": {
        "details": "Get the commit hash for a given voter and epoch. Revert if voter has not committed yet.",
        "params": {
          "epochNumber": "The epoch to check",
          "voter": "The voter's address"
        }
      },
      "getFirstChoiceVotes(uint256,address,uint256)": {
        "details": "Get the number of first-choice votes cast for the given slate and resource",
        "params": {
          "epochNumber": "The epoch",
          "resource": "The resource",
          "slateID": "The slate"
        }
      },
      "getSecondChoiceVotes(uint256,address,uint256)": {
        "details": "Get the number of second-choice votes cast for the given slate and resource",
        "params": {
          "epochNumber": "The epoch",
          "resource": "The resource",
          "slateID": "The slate"
        }
      },
      "getWinningSlate(uint256,address)": {
        "details": "Return the ID of the winning slate for the given epoch and resource Revert if the vote has not been finalized yet.",
        "params": {
          "epochNumber": "The epoch",
          "resource": "The resource of interest"
        }
      },
      "hasPermission(uint256)": {
        "details": "Return true if the requestID has been approved via slate governance and has not expired",
        "params": {
          "requestID": "The ID of the request to check"
        }
      },
      "isCurrentGatekeeper()": {
        "details": "Return true if this is the Gatekeeper currently pointed to by the ParameterStore"
      },
      "recommendSlate(address,uint256[],bytes)": {
        "details": "Create a new slate with the associated requestIds and metadata hash.",
        "params": {
          "metadataHash": "A reference to metadata about the slate",
          "requestIDs": "A list of request IDs to include in the slate",
          "resource": "The resource to submit the slate for"
        }
      },
      "requestPermission(bytes)": {
        "details": "Request permission to perform the action described in the metadataHash",
        "params": {
          "metadataHash": "A reference to metadata about the action"
        }
      },
      "revealBallot(uint256,address,address[],uint256[],uint256[],uint256)": {
        "details": "Reveal a given voter's choices for the current ballot and record their choices",
        "params": {
          "firstChoices": "The corresponding first choices",
          "resources": "The contests to vote on",
          "salt": "The salt used to generate the original commitment",
          "secondChoices": "The corresponding second choices",
          "voter": "The voter's address"
        }
      },
      "revealManyBallots(uint256,address[],bytes[],uint256[])": {
        "details": "Reveal ballots for multiple voters"
      },
      "slateRequests(uint256)": {
        "details": "Get a list of the requests associated with a slate",
        "params": {
          "slateID": "The slate"
        }
      },
      "slateSubmissionDeadline(uint256,address)": {
        "details": "Return the slate submission deadline for the given resource",
        "params": {
          "epochNumber": "The epoch",
          "resource": "The resource"
        }
      },
      "slateSubmissionPeriodActive(address)": {
        "details": "Return true if the slate submission period is active for the given resource and the current epoch."
      },
      "stakeTokens(uint256)": {
        "details": "Stake tokens on the given slate to include it for consideration in votes. If the slate loses in a contest, the amount staked will go to the winner. If it wins, it will be returned.",
        "params": {
          "slateID": "The slate to stake on"
        }
      },
      "timeTravel(int256)": {
        "details": "Move forward or backward in the epoch by adjusting the start time. Positive numbers move into the future, while negative numbers move into the past. Only whitelisted accounts can call this.",
        "params": {
          "amount": "The number of seconds to shift by"
        }
      },
      "withdrawStake(uint256)": {
        "details": "Withdraw tokens previously staked on a slate that was accepted through slate governance.",
        "params": {
          "slateID": "The slate to withdraw the stake from"
        }
      },
      "withdrawVoteTokens(uint256)": {
        "details": "Withdraw `numTokens` vote tokens to the caller and decrease voting power",
        "params": {
          "numTokens": "The number of tokens to withdraw"
        }
      }
    }
  },
  "userdoc": {
    "methods": {}
  }
}