{
  "contractName": "Gatekeeper",
  "abi": [
    {
      "constant": true,
      "inputs": [],
      "name": "requestCount",
      "outputs": [
        {
          "name": "",
          "type": "uint256"
        }
      ],
      "payable": false,
      "stateMutability": "view",
      "type": "function"
    },
    {
      "constant": true,
      "inputs": [],
      "name": "startTime",
      "outputs": [
        {
          "name": "",
          "type": "uint256"
        }
      ],
      "payable": false,
      "stateMutability": "view",
      "type": "function"
    },
    {
      "constant": true,
      "inputs": [],
      "name": "batchLength",
      "outputs": [
        {
          "name": "",
          "type": "uint256"
        }
      ],
      "payable": false,
      "stateMutability": "view",
      "type": "function"
    },
    {
      "constant": true,
      "inputs": [
        {
          "name": "",
          "type": "uint256"
        }
      ],
      "name": "requests",
      "outputs": [
        {
          "name": "metadataHash",
          "type": "bytes"
        },
        {
          "name": "approved",
          "type": "bool"
        }
      ],
      "payable": false,
      "stateMutability": "view",
      "type": "function"
    },
    {
      "constant": true,
      "inputs": [],
      "name": "parameters",
      "outputs": [
        {
          "name": "",
          "type": "address"
        }
      ],
      "payable": false,
      "stateMutability": "view",
      "type": "function"
    },
    {
      "constant": true,
      "inputs": [],
      "name": "slateCount",
      "outputs": [
        {
          "name": "",
          "type": "uint256"
        }
      ],
      "payable": false,
      "stateMutability": "view",
      "type": "function"
    },
    {
      "constant": true,
      "inputs": [
        {
          "name": "",
          "type": "uint256"
        }
      ],
      "name": "slates",
      "outputs": [
        {
          "name": "",
          "type": "address"
        }
      ],
      "payable": false,
      "stateMutability": "view",
      "type": "function"
    },
    {
      "inputs": [
        {
          "name": "_startTime",
          "type": "uint256"
        },
        {
          "name": "_slateStakeAmount",
          "type": "uint256"
        }
      ],
      "payable": false,
      "stateMutability": "nonpayable",
      "type": "constructor"
    },
    {
      "anonymous": false,
      "inputs": [
        {
          "indexed": false,
          "name": "requestID",
          "type": "uint256"
        },
        {
          "indexed": false,
          "name": "metadataHash",
          "type": "bytes"
        }
      ],
      "name": "PermissionRequested",
      "type": "event"
    },
    {
      "anonymous": false,
      "inputs": [
        {
          "indexed": false,
          "name": "slateID",
          "type": "uint256"
        },
        {
          "indexed": true,
          "name": "recommender",
          "type": "address"
        },
        {
          "indexed": false,
          "name": "metadataHash",
          "type": "bytes"
        }
      ],
      "name": "SlateCreated",
      "type": "event"
    },
    {
      "constant": false,
      "inputs": [],
      "name": "currentBatchNumber",
      "outputs": [
        {
          "name": "",
          "type": "uint256"
        }
      ],
      "payable": false,
      "stateMutability": "nonpayable",
      "type": "function"
    },
    {
      "constant": false,
      "inputs": [],
      "name": "currentBatchStart",
      "outputs": [
        {
          "name": "",
          "type": "uint256"
        }
      ],
      "payable": false,
      "stateMutability": "nonpayable",
      "type": "function"
    },
    {
      "constant": false,
      "inputs": [
        {
          "name": "batchNumber",
          "type": "uint256"
        },
        {
          "name": "category",
          "type": "uint256"
        },
        {
          "name": "requestIDs",
          "type": "uint256[]"
        },
        {
          "name": "metadataHash",
          "type": "bytes"
        }
      ],
      "name": "recommendSlate",
      "outputs": [
        {
          "name": "",
          "type": "uint256"
        }
      ],
      "payable": false,
      "stateMutability": "nonpayable",
      "type": "function"
    },
    {
      "constant": false,
      "inputs": [
        {
          "name": "metadataHash",
          "type": "bytes"
        }
      ],
      "name": "requestPermission",
      "outputs": [
        {
          "name": "",
          "type": "uint256"
        }
      ],
      "payable": false,
      "stateMutability": "nonpayable",
      "type": "function"
    }
  ],
  "bytecode": "0x6080604052600d62093a80026001553480156200001b57600080fd5b506040516040806200213a83398101806040526200003d9190810190620001d5565b816000819055506000600190506060816040519080825280602002602001820160405280156200008257816020015b60608152602001906001900390816200006c5790505b509050606082604051908082528060200260200182016040528015620000b75781602001602082028038833980820191505090505b5090506040805190810160405280601081526020017f736c6174655374616b65416d6f756e74000000000000000000000000000000008152508260008151811015156200010057fe5b90602001906020020181905250838160008151811015156200011e57fe5b9060200190602002018181525050818162000138620001ae565b6200014592919062000340565b604051809103906000f08015801562000162573d6000803e3d6000fd5b50600260006101000a81548173ffffffffffffffffffffffffffffffffffffffff021916908373ffffffffffffffffffffffffffffffffffffffff16021790555050505050506200042b565b6040516107b7806200198383390190565b6000620001cd8251620003da565b905092915050565b60008060408385031215620001e957600080fd5b6000620001f985828601620001bf565b92505060206200020c85828601620001bf565b9150509250929050565b6000620002238262000395565b808452602084019350836020820285016200023e856200037b565b60005b848110156200027d5783830388526200025c838351620002f3565b92506200026982620003b6565b915060208801975060018101905062000241565b508196508694505050505092915050565b60006200029b82620003a0565b808452602084019350620002af8362000388565b60005b82811015620002e757620002c88683516200032f565b620002d382620003c3565b9150602086019550600181019050620002b2565b50849250505092915050565b60006200030082620003ab565b80845262000316816020860160208601620003e4565b62000321816200041a565b602085010191505092915050565b6200033a81620003d0565b82525050565b600060408201905081810360008301526200035c818562000216565b905081810360208301526200037281846200028e565b90509392505050565b6000602082019050919050565b6000602082019050919050565b600081519050919050565b600081519050919050565b600081519050919050565b6000602082019050919050565b6000602082019050919050565b6000819050919050565b6000819050919050565b60005b8381101562000404578082015181840152602081019050620003e7565b8381111562000414576000848401525b50505050565b6000601f19601f8301169050919050565b611548806200043b6000396000f3fe608060405260043610620000bb576000357c0100000000000000000000000000000000000000000000000000000000900463ffffffff1680631ee6260814620000c057806333a5ae2914620001045780635320edf214620001485780635badbe4c146200017857806378e9792514620001a85780637cc7719e14620001d857806381d12c58146200020857806389035730146200024d5780638fcddad4146200027d578063f48fa80b14620002ad578063ff0b48a014620002dd575b600080fd5b348015620000cd57600080fd5b50620000ec6004803603620000e6919081019062000a77565b62000321565b604051620000fb919062000d2e565b60405180910390f35b3480156200011157600080fd5b506200013060048036036200012a919081019062000a02565b62000435565b6040516200013f919062000d2e565b60405180910390f35b3480156200015557600080fd5b506200016062000562565b6040516200016f919062000d2e565b60405180910390f35b3480156200018557600080fd5b5062000190620005a4565b6040516200019f919062000d2e565b60405180910390f35b348015620001b557600080fd5b50620001c0620005aa565b604051620001cf919062000d2e565b60405180910390f35b348015620001e557600080fd5b50620001f0620005b0565b604051620001ff919062000d2e565b60405180910390f35b3480156200021557600080fd5b506200023460048036036200022e919081019062000a4b565b620005b6565b6040516200024492919062000cc0565b60405180910390f35b3480156200025a57600080fd5b506200026562000683565b60405162000274919062000cf4565b60405180910390f35b3480156200028a57600080fd5b5062000295620006a9565b604051620002a4919062000d2e565b60405180910390f35b348015620002ba57600080fd5b50620002c5620006af565b604051620002d4919062000d2e565b60405180910390f35b348015620002ea57600080fd5b5062000309600480360362000303919081019062000a4b565b620006ee565b60405162000318919062000d11565b60405180910390f35b60008033838562000331620007d4565b6200033f9392919062000c75565b604051809103906000f0801580156200035c573d6000803e3d6000fd5b50905060006006549050816005600083815260200190815260200160002060006101000a81548173ffffffffffffffffffffffffffffffffffffffff021916908373ffffffffffffffffffffffffffffffffffffffff160217905550620003d060016006546200072190919063ffffffff16565b6006819055503373ffffffffffffffffffffffffffffffffffffffff167f3873b6137bfd1184ee61d4c5e9990454ea346f13a5b5f04b0bec79473bc8f9e582866040516200042092919062000d81565b60405180910390a28092505050949350505050565b600062000441620007e5565b604080519081016040528085858080601f016020809104026020016040519081016040528093929190818152602001838380828437600081840152601f19601f8201169050808301925050505050505081526020016000151581525090506000600454905081600360008381526020019081526020016000206000820151816000019080519060200190620004d892919062000801565b5060208201518160010160006101000a81548160ff0219169083151502179055509050506200051460016004546200072190919063ffffffff16565b6004819055507f1b5cd081a371aff4fe9b4e0041d1315bb8a11f762d7c55254f8bd456e856812e8186866040516200054f9392919062000d4b565b60405180910390a1809250505092915050565b6000806200056f620006af565b90506200059e6200058c826001546200074390919063ffffffff16565b6000546200072190919063ffffffff16565b91505090565b60045481565b60005481565b60015481565b6003602052806000526040600020600091509050806000018054600181600116156101000203166002900480601f016020809104026020016040519081016040528092919081815260200182805460018160011615610100020316600290048015620006665780601f106200063a5761010080835404028352916020019162000666565b820191906000526020600020905b8154815290600101906020018083116200064857829003601f168201915b5050505050908060010160009054906101000a900460ff16905082565b600260009054906101000a900473ffffffffffffffffffffffffffffffffffffffff1681565b60065481565b600080620006c9600054426200078590919063ffffffff16565b90506000620006e460015483620007a890919063ffffffff16565b9050809250505090565b60056020528060005260406000206000915054906101000a900473ffffffffffffffffffffffffffffffffffffffff1681565b60008082840190508381101515156200073957600080fd5b8091505092915050565b6000808314156200075857600090506200077f565b600082840290508284828115156200076c57fe5b041415156200077a57600080fd5b809150505b92915050565b60008282111515156200079757600080fd5b600082840390508091505092915050565b60008082111515620007b957600080fd5b60008284811515620007c757fe5b0490508091505092915050565b6040516105788062000f9783390190565b6040805190810160405280606081526020016000151581525090565b828054600181600116156101000203166002900490600052602060002090601f016020900481019282601f106200084457805160ff191683800117855562000875565b8280016001018555821562000875579182015b828111156200087457825182559160200191906001019062000857565b5b50905062000884919062000888565b5090565b620008ad91905b80821115620008a95760008160009055506001016200088f565b5090565b90565b600082601f8301121515620008c457600080fd5b8135620008db620008d58262000de3565b62000db5565b915081818352602084019350602081019050838560208402820111156200090157600080fd5b60005b838110156200093557816200091a8882620009ec565b84526020840193506020830192505060018101905062000904565b5050505092915050565b60008083601f84011215156200095457600080fd5b8235905067ffffffffffffffff8111156200096e57600080fd5b6020830191508360018202830111156200098757600080fd5b9250929050565b600082601f8301121515620009a257600080fd5b8135620009b9620009b38262000e0c565b62000db5565b91508082526020830160208301858383011115620009d657600080fd5b620009e383828462000f40565b50505092915050565b6000620009fa823562000eaa565b905092915050565b6000806020838503121562000a1657600080fd5b600083013567ffffffffffffffff81111562000a3157600080fd5b62000a3f858286016200093f565b92509250509250929050565b60006020828403121562000a5e57600080fd5b600062000a6e84828501620009ec565b91505092915050565b6000806000806080858703121562000a8e57600080fd5b600062000a9e87828801620009ec565b945050602062000ab187828801620009ec565b935050604085013567ffffffffffffffff81111562000acf57600080fd5b62000add87828801620008b0565b925050606085013567ffffffffffffffff81111562000afb57600080fd5b62000b09878288016200098e565b91505092959194509250565b62000b208162000eb4565b82525050565b600062000b338262000e46565b80845260208401935062000b478362000e39565b60005b8281101562000b7f5762000b6086835162000c64565b62000b6b8262000e67565b915060208601955060018101905062000b4a565b50849250505092915050565b62000b968162000e74565b82525050565b600082845260208401935062000bb483858462000f40565b62000bbf8362000f85565b840190509392505050565b600062000bd78262000e5c565b80845262000bed81602086016020860162000f4f565b62000bf88162000f85565b602085010191505092915050565b600062000c138262000e51565b80845262000c2981602086016020860162000f4f565b62000c348162000f85565b602085010191505092915050565b62000c4d8162000ec8565b82525050565b62000c5e8162000ef0565b82525050565b62000c6f8162000ea0565b82525050565b600060608201905062000c8c600083018662000b15565b818103602083015262000ca0818562000bca565b9050818103604083015262000cb6818462000b26565b9050949350505050565b6000604082019050818103600083015262000cdc818562000c06565b905062000ced602083018462000b8b565b9392505050565b600060208201905062000d0b600083018462000c42565b92915050565b600060208201905062000d28600083018462000c53565b92915050565b600060208201905062000d45600083018462000c64565b92915050565b600060408201905062000d62600083018662000c64565b818103602083015262000d7781848662000b9c565b9050949350505050565b600060408201905062000d98600083018562000c64565b818103602083015262000dac818462000bca565b90509392505050565b6000604051905081810181811067ffffffffffffffff8211171562000dd957600080fd5b8060405250919050565b600067ffffffffffffffff82111562000dfb57600080fd5b602082029050602081019050919050565b600067ffffffffffffffff82111562000e2457600080fd5b601f19601f8301169050602081019050919050565b6000602082019050919050565b600081519050919050565b600081519050919050565b600081519050919050565b6000602082019050919050565b60008115159050919050565b600073ffffffffffffffffffffffffffffffffffffffff82169050919050565b6000819050919050565b6000819050919050565b600062000ec18262000f18565b9050919050565b600062000ed58262000edc565b9050919050565b600062000ee98262000e80565b9050919050565b600062000efd8262000f04565b9050919050565b600062000f118262000e80565b9050919050565b600062000f258262000f2c565b9050919050565b600062000f398262000e80565b9050919050565b82818337600083830152505050565b60005b8381101562000f6f57808201518184015260208101905062000f52565b8381111562000f7f576000848401525b50505050565b6000601f19601f830116905091905056fe608060405234801561001057600080fd5b506040516105783803806105788339810180604052606081101561003357600080fd5b8101908080519060200190929190805164010000000081111561005557600080fd5b8281019050602081018481111561006b57600080fd5b815185600182028301116401000000008211171561008857600080fd5b505092919060200180516401000000008111156100a457600080fd5b828101905060208101848111156100ba57600080fd5b81518560208202830111640100000000821117156100d757600080fd5b5050929190505050826000806101000a81548173ffffffffffffffffffffffffffffffffffffffff021916908373ffffffffffffffffffffffffffffffffffffffff16021790555081600190805190602001906101359291906101c8565b5060008090505b815181101561019b576000828281518110151561015557fe5b90602001906020020151905060016002600083815260200190815260200160002060006101000a81548160ff02191690831515021790555050808060010191505061013c565b506000600360006101000a81548160ff021916908360028111156101bb57fe5b021790555050505061026d565b828054600181600116156101000203166002900490600052602060002090601f016020900481019282601f1061020957805160ff1916838001178555610237565b82800160010185558215610237579182015b8281111561023657825182559160200191906001019061021b565b5b5090506102449190610248565b5090565b61026a91905b8082111561026657600081600090555060010161024e565b5090565b90565b6102fc8061027c6000396000f3fe608060405260043610610062576000357c0100000000000000000000000000000000000000000000000000000000900463ffffffff168063200d2ed21461006757806381d12c58146100a0578063c5a1d7f0146100f3578063c802c74314610183575b600080fd5b34801561007357600080fd5b5061007c6101da565b6040518082600281111561008c57fe5b60ff16815260200191505060405180910390f35b3480156100ac57600080fd5b506100d9600480360360208110156100c357600080fd5b81019080803590602001909291905050506101ed565b604051808215151515815260200191505060405180910390f35b3480156100ff57600080fd5b5061010861020d565b6040518080602001828103825283818151815260200191508051906020019080838360005b8381101561014857808201518184015260208101905061012d565b50505050905090810190601f1680156101755780820380516001836020036101000a031916815260200191505b509250505060405180910390f35b34801561018f57600080fd5b506101986102ab565b604051808273ffffffffffffffffffffffffffffffffffffffff1673ffffffffffffffffffffffffffffffffffffffff16815260200191505060405180910390f35b600360009054906101000a900460ff1681565b60026020528060005260406000206000915054906101000a900460ff1681565b60018054600181600116156101000203166002900480601f0160208091040260200160405190810160405280929190818152602001828054600181600116156101000203166002900480156102a35780601f10610278576101008083540402835291602001916102a3565b820191906000526020600020905b81548152906001019060200180831161028657829003601f168201915b505050505081565b6000809054906101000a900473ffffffffffffffffffffffffffffffffffffffff168156fea165627a7a72305820e5094904029fc307d1e7862c18aaba5d359785751790ad2df7142402145f44780029a265627a7a72305820fb3bb9d0380964baf96d399cf89262f60ea7975b29f6679caa513a6d945efd206c6578706572696d656e74616cf50037608060405234801561001057600080fd5b506040516107b73803806107b7833981018060405261003291908101906102d5565b60008090505b825181101561009b576060838281518110151561005157fe5b90602001906020020151905061008d81848481518110151561006f57fe5b906020019060200201516100a3640100000000026401000000009004565b508080600101915050610038565b505050610482565b6000826040516020018082805190602001908083835b6020831015156100de57805182526020820191506020810190506020830392506100b9565b6001836020036101000a03801982511681845116808217855250505050505090500191505060405160208183030381529060405280519060200120905081600080838152602001908152602001600020819055507ff93fd9b81abd6664e36978db24904a722ea8d841c0cc3563aec5e28ce6165a41818360405161016392919061035f565b60405180910390a1505050565b600082601f830112151561018357600080fd5b8151610196610191826103b5565b610388565b9150818183526020840193506020810190508360005b838110156101dc57815186016101c2888261026b565b8452602084019350602083019250506001810190506101ac565b5050505092915050565b600082601f83011215156101f957600080fd5b815161020c610207826103dd565b610388565b9150818183526020840193506020810190508385602084028201111561023157600080fd5b60005b83811015610261578161024788826102c1565b845260208401935060208301925050600181019050610234565b5050505092915050565b600082601f830112151561027e57600080fd5b815161029161028c82610405565b610388565b915080825260208301602083018583830111156102ad57600080fd5b6102b883828461044f565b50505092915050565b60006102cd8251610445565b905092915050565b600080604083850312156102e857600080fd5b600083015167ffffffffffffffff81111561030257600080fd5b61030e85828601610170565b925050602083015167ffffffffffffffff81111561032b57600080fd5b610337858286016101e6565b9150509250929050565b61034a81610431565b82525050565b6103598161043b565b82525050565b60006040820190506103746000830185610341565b6103816020830184610350565b9392505050565b6000604051905081810181811067ffffffffffffffff821117156103ab57600080fd5b8060405250919050565b600067ffffffffffffffff8211156103cc57600080fd5b602082029050602081019050919050565b600067ffffffffffffffff8211156103f457600080fd5b602082029050602081019050919050565b600067ffffffffffffffff82111561041c57600080fd5b601f19601f8301169050602081019050919050565b6000819050919050565b6000819050919050565b6000819050919050565b60005b8381101561046d578082015181840152602081019050610452565b8381111561047c576000848401525b50505050565b610326806104916000396000f3fe60806040526004361061004c576000357c0100000000000000000000000000000000000000000000000000000000900463ffffffff168063693ec85e14610051578063dc6ab5271461008e575b600080fd5b34801561005d57600080fd5b5061007860048036036100739190810190610205565b6100cb565b6040516100859190610255565b60405180910390f35b34801561009a57600080fd5b506100b560048036036100b091908101906101dc565b61015a565b6040516100c29190610255565b60405180910390f35b6000806000836040516020018082805190602001908083835b60208310151561010957805182526020820191506020810190506020830392506100e4565b6001836020036101000a038019825116818451168082178552505050505050905001915050604051602081830303815290604052805190602001208152602001908152602001600020549050919050565b60006020528060005260406000206000915090505481565b600061017e82356102d3565b905092915050565b600082601f830112151561019957600080fd5b81356101ac6101a78261029d565b610270565b915080825260208301602083018583830111156101c857600080fd5b6101d38382846102dd565b50505092915050565b6000602082840312156101ee57600080fd5b60006101fc84828501610172565b91505092915050565b60006020828403121561021757600080fd5b600082013567ffffffffffffffff81111561023157600080fd5b61023d84828501610186565b91505092915050565b61024f816102c9565b82525050565b600060208201905061026a6000830184610246565b92915050565b6000604051905081810181811067ffffffffffffffff8211171561029357600080fd5b8060405250919050565b600067ffffffffffffffff8211156102b457600080fd5b601f19601f8301169050602081019050919050565b6000819050919050565b6000819050919050565b8281833760008383015250505056fea265627a7a723058207f2ab8f02dd8a9d3327aaa015afa74c8326de400d0c05ba3394928fbd778ddcb6c6578706572696d656e74616cf50037",
  "source": "pragma solidity ^0.5.0;\npragma experimental ABIEncoderV2;\n\nimport \"./ParameterStore.sol\";\nimport \"./Slate.sol\";\nimport \"openzeppelin-solidity/contracts/math/SafeMath.sol\";\n\n\ncontract Gatekeeper {\n    // EVENTS\n    event PermissionRequested(uint requestID, bytes metadataHash);\n    event SlateCreated(uint slateID, address indexed recommender, bytes metadataHash);\n\n    // STATE\n    using SafeMath for uint256;\n\n    uint constant ONE_WEEK = 604800;\n\n    // The timestamp of the start of the first batch\n    uint public startTime;\n    uint public batchLength = ONE_WEEK * 13; // 13 weeks\n\n    // Parameters\n    ParameterStore public parameters;\n\n    struct Request {\n        bytes metadataHash;\n        bool approved;\n    }\n\n    // The requests made to the Gatekeeper. Maps requestID -> Request.\n    mapping(uint => Request) public requests;\n\n    // The total number of requests created\n    uint public requestCount;\n\n    // The slates created by the Gatekeeper. Maps slateID -> Slate.\n    mapping(uint => Slate) public slates;\n\n    // The total number of slates created\n    uint public slateCount;\n\n\n    // IMPLEMENTATION\n    /**\n     @dev Initialize a Gatekeeper contract.\n     @param _startTime The start time of the first batch\n     @param _slateStakeAmount The number of tokens required to stake on a slate\n    */\n    constructor(uint _startTime, uint _slateStakeAmount) public {\n        startTime = _startTime;\n\n        uint length = 1;\n        string[] memory names = new string[](length);\n        uint[] memory values = new uint[](length);\n\n        names[0] = \"slateStakeAmount\";\n        values[0] = _slateStakeAmount;\n\n        parameters = new ParameterStore(names, values);\n    }\n\n    /**\n    * @dev Get the number of the current batch.\n    */\n    function currentBatchNumber() public returns(uint) {\n        uint elapsed = now.sub(startTime);\n        uint batchNumber = elapsed.div(batchLength);\n\n        return batchNumber;\n    }\n\n    /**\n    * @dev Get the start of the current batch.\n    */\n    function currentBatchStart() public returns(uint) {\n        uint batchNumber = currentBatchNumber();\n        return startTime.add(batchLength.mul(batchNumber));\n    }\n\n    // SLATE GOVERNANCE\n    /**\n    * @dev Create a new slate with the associated requestIds and metadata hash.\n    * @param batchNumber The batch to submit for\n    * @param category The category to submit the slate for\n    * @param requestIDs A list of request IDs to include in the slate\n    * @param metadataHash A reference to metadata about the slate\n    */\n    function recommendSlate(\n        uint batchNumber,\n        uint category,\n        uint[] memory requestIDs,\n        bytes memory metadataHash\n    )\n        public returns(uint)\n    {\n        // NOTE: all requestIDs must be valid\n        // NOTE: category must be valid\n        // NOTE: batchNumber must be the current one\n        // NOTE: metadataHash must be valid\n\n        // create slate\n        Slate s = new Slate(msg.sender, metadataHash, requestIDs);\n\n        // Record slate and return its ID\n        uint slateID = slateCount;\n        slates[slateID] = s;\n        slateCount = slateCount.add(1);\n\n        emit SlateCreated(slateID, msg.sender, metadataHash);\n        return slateID;\n    }\n\n    // ACCESS CONTROL\n\n    /**\n    @dev Request permission to perform the action described in the metadataHash\n    @param metadataHash A reference to metadata about the action\n    */\n    function requestPermission(bytes calldata metadataHash) external returns(uint) {\n        // NOTE: metadataHash cannot be empty\n\n        // Create new request\n        Request memory r = Request({\n            metadataHash: metadataHash,\n            approved: false\n        });\n\n        // Record request and return its ID\n        uint requestID = requestCount;\n        requests[requestID] = r;\n        requestCount = requestCount.add(1);\n\n        emit PermissionRequested(requestID, metadataHash);\n        return requestID;\n    }\n}\n",
  "sourcePath": "/Users/kangarang/Desktop/Projects/panvala/governance-contracts/contracts/Gatekeeper.sol",
  "compiler": {
    "name": "solc",
    "version": "0.5.0+commit.1d4f565a.Emscripten.clang"
  },
  "schemaVersion": "3.0.2",
  "updatedAt": "2019-03-01T06:39:33.144Z",
  "devdoc": {
    "methods": {
      "constructor": {
        "details": "Initialize a Gatekeeper contract.",
        "params": {
          "_slateStakeAmount": "The number of tokens required to stake on a slate",
          "_startTime": "The start time of the first batch"
        }
      },
      "currentBatchNumber()": {
        "details": "Get the number of the current batch."
      },
      "currentBatchStart()": {
        "details": "Get the start of the current batch."
      },
      "recommendSlate(uint256,uint256,uint256[],bytes)": {
        "details": "Create a new slate with the associated requestIds and metadata hash.",
        "params": {
          "batchNumber": "The batch to submit for",
          "category": "The category to submit the slate for",
          "metadataHash": "A reference to metadata about the slate",
          "requestIDs": "A list of request IDs to include in the slate"
        }
      },
      "requestPermission(bytes)": {
        "details": "Request permission to perform the action described in the metadataHash",
        "params": {
          "metadataHash": "A reference to metadata about the action"
        }
      }
    }
  },
  "userdoc": {
    "methods": {}
  }
}