{
  "contractName": "ParameterStore",
  "abi": [
    {
      "constant": true,
      "inputs": [
        {
          "name": "",
          "type": "bytes32"
        }
      ],
      "name": "params",
      "outputs": [
        {
          "name": "",
          "type": "uint256"
        }
      ],
      "payable": false,
      "stateMutability": "view",
      "type": "function"
    },
    {
      "inputs": [
        {
          "name": "_names",
          "type": "string[]"
        },
        {
          "name": "_values",
          "type": "uint256[]"
        }
      ],
      "payable": false,
      "stateMutability": "nonpayable",
      "type": "constructor"
    },
    {
      "anonymous": false,
      "inputs": [
        {
          "indexed": false,
          "name": "key",
          "type": "bytes32"
        },
        {
          "indexed": false,
          "name": "value",
          "type": "uint256"
        }
      ],
      "name": "ParameterSet",
      "type": "event"
    },
    {
      "constant": true,
      "inputs": [
        {
          "name": "_name",
          "type": "string"
        }
      ],
      "name": "get",
      "outputs": [
        {
          "name": "value",
          "type": "uint256"
        }
      ],
      "payable": false,
      "stateMutability": "view",
      "type": "function"
    }
  ],
  "bytecode": "0x608060405234801561001057600080fd5b506040516107b73803806107b7833981018060405261003291908101906102d5565b60008090505b825181101561009b576060838281518110151561005157fe5b90602001906020020151905061008d81848481518110151561006f57fe5b906020019060200201516100a3640100000000026401000000009004565b508080600101915050610038565b505050610482565b6000826040516020018082805190602001908083835b6020831015156100de57805182526020820191506020810190506020830392506100b9565b6001836020036101000a03801982511681845116808217855250505050505090500191505060405160208183030381529060405280519060200120905081600080838152602001908152602001600020819055507ff93fd9b81abd6664e36978db24904a722ea8d841c0cc3563aec5e28ce6165a41818360405161016392919061035f565b60405180910390a1505050565b600082601f830112151561018357600080fd5b8151610196610191826103b5565b610388565b9150818183526020840193506020810190508360005b838110156101dc57815186016101c2888261026b565b8452602084019350602083019250506001810190506101ac565b5050505092915050565b600082601f83011215156101f957600080fd5b815161020c610207826103dd565b610388565b9150818183526020840193506020810190508385602084028201111561023157600080fd5b60005b83811015610261578161024788826102c1565b845260208401935060208301925050600181019050610234565b5050505092915050565b600082601f830112151561027e57600080fd5b815161029161028c82610405565b610388565b915080825260208301602083018583830111156102ad57600080fd5b6102b883828461044f565b50505092915050565b60006102cd8251610445565b905092915050565b600080604083850312156102e857600080fd5b600083015167ffffffffffffffff81111561030257600080fd5b61030e85828601610170565b925050602083015167ffffffffffffffff81111561032b57600080fd5b610337858286016101e6565b9150509250929050565b61034a81610431565b82525050565b6103598161043b565b82525050565b60006040820190506103746000830185610341565b6103816020830184610350565b9392505050565b6000604051905081810181811067ffffffffffffffff821117156103ab57600080fd5b8060405250919050565b600067ffffffffffffffff8211156103cc57600080fd5b602082029050602081019050919050565b600067ffffffffffffffff8211156103f457600080fd5b602082029050602081019050919050565b600067ffffffffffffffff82111561041c57600080fd5b601f19601f8301169050602081019050919050565b6000819050919050565b6000819050919050565b6000819050919050565b60005b8381101561046d578082015181840152602081019050610452565b8381111561047c576000848401525b50505050565b610326806104916000396000f3fe60806040526004361061004c576000357c0100000000000000000000000000000000000000000000000000000000900463ffffffff168063693ec85e14610051578063dc6ab5271461008e575b600080fd5b34801561005d57600080fd5b5061007860048036036100739190810190610205565b6100cb565b6040516100859190610255565b60405180910390f35b34801561009a57600080fd5b506100b560048036036100b091908101906101dc565b61015a565b6040516100c29190610255565b60405180910390f35b6000806000836040516020018082805190602001908083835b60208310151561010957805182526020820191506020810190506020830392506100e4565b6001836020036101000a038019825116818451168082178552505050505050905001915050604051602081830303815290604052805190602001208152602001908152602001600020549050919050565b60006020528060005260406000206000915090505481565b600061017e82356102d3565b905092915050565b600082601f830112151561019957600080fd5b81356101ac6101a78261029d565b610270565b915080825260208301602083018583830111156101c857600080fd5b6101d38382846102dd565b50505092915050565b6000602082840312156101ee57600080fd5b60006101fc84828501610172565b91505092915050565b60006020828403121561021757600080fd5b600082013567ffffffffffffffff81111561023157600080fd5b61023d84828501610186565b91505092915050565b61024f816102c9565b82525050565b600060208201905061026a6000830184610246565b92915050565b6000604051905081810181811067ffffffffffffffff8211171561029357600080fd5b8060405250919050565b600067ffffffffffffffff8211156102b457600080fd5b601f19601f8301169050602081019050919050565b6000819050919050565b6000819050919050565b8281833760008383015250505056fea265627a7a723058207f2ab8f02dd8a9d3327aaa015afa74c8326de400d0c05ba3394928fbd778ddcb6c6578706572696d656e74616cf50037",
  "source": "pragma solidity ^0.5.0;\npragma experimental ABIEncoderV2;\n\n\ncontract ParameterStore {\n    // EVENTS\n    event ParameterSet(bytes32 key, uint value);\n\n\n    // STATE\n    mapping(bytes32 => uint) public params;\n\n\n    // IMPLEMENTATION\n    /**\n     @dev Initialize a ParameterStore with a set of names and associated values.\n     @param _names Names of parameters\n     @param _values Values to assign them\n    */\n    constructor(string[] memory _names, uint[] memory _values) public {\n        // NOTE: _keys and _values must have the same length\n\n        for (uint i = 0; i < _names.length; i++) {\n            string memory name = _names[i];\n            set(name, _values[i]);\n        }\n    }\n\n\n    /**\n     @dev Get the parameter value associated with the given name.\n     @param _name The name of the parameter to get the value for\n    */\n    function get(string memory _name) public view returns (uint value) {\n        // TODO: what if the value doesn't exist?\n        return params[keccak256(abi.encodePacked(_name))];\n    }\n\n\n    /**\n     @dev Assign the parameter with the given key to the given value.\n     @param _name The name of the parameter to be set\n     @param _value The value to assign the parameter\n    */\n    function set(string memory _name, uint _value) private {\n        bytes32 key = keccak256(abi.encodePacked(_name));\n        params[key] = _value;\n        emit ParameterSet(key, _value);\n    }\n}\n",
  "sourcePath": "/Users/kangarang/Desktop/Projects/panvala/governance-contracts/contracts/ParameterStore.sol",
  "compiler": {
    "name": "solc",
    "version": "0.5.0+commit.1d4f565a.Emscripten.clang"
  },
  "schemaVersion": "3.0.2",
  "updatedAt": "2019-03-01T06:39:33.146Z",
  "devdoc": {
    "methods": {
      "constructor": {
        "details": "Initialize a ParameterStore with a set of names and associated values.",
        "params": {
          "_names": "Names of parameters",
          "_values": "Values to assign them"
        }
      },
      "get(string)": {
        "details": "Get the parameter value associated with the given name.",
        "params": {
          "_name": "The name of the parameter to get the value for"
        }
      }
    }
  },
  "userdoc": {
    "methods": {}
  }
}