{
  "contractName": "Slate",
  "abi": [
    {
      "constant": true,
      "inputs": [],
      "name": "status",
      "outputs": [
        {
          "name": "",
          "type": "uint8"
        }
      ],
      "payable": false,
      "stateMutability": "view",
      "type": "function"
    },
    {
      "constant": true,
      "inputs": [
        {
          "name": "",
          "type": "uint256"
        }
      ],
      "name": "requests",
      "outputs": [
        {
          "name": "",
          "type": "bool"
        }
      ],
      "payable": false,
      "stateMutability": "view",
      "type": "function"
    },
    {
      "constant": true,
      "inputs": [],
      "name": "metadataHash",
      "outputs": [
        {
          "name": "",
          "type": "bytes"
        }
      ],
      "payable": false,
      "stateMutability": "view",
      "type": "function"
    },
    {
      "constant": true,
      "inputs": [],
      "name": "recommender",
      "outputs": [
        {
          "name": "",
          "type": "address"
        }
      ],
      "payable": false,
      "stateMutability": "view",
      "type": "function"
    },
    {
      "inputs": [
        {
          "name": "_recommender",
          "type": "address"
        },
        {
          "name": "_metadataHash",
          "type": "bytes"
        },
        {
          "name": "_requestIDs",
          "type": "uint256[]"
        }
      ],
      "payable": false,
      "stateMutability": "nonpayable",
      "type": "constructor"
    }
  ],
  "bytecode": "0x608060405234801561001057600080fd5b506040516105783803806105788339810180604052606081101561003357600080fd5b8101908080519060200190929190805164010000000081111561005557600080fd5b8281019050602081018481111561006b57600080fd5b815185600182028301116401000000008211171561008857600080fd5b505092919060200180516401000000008111156100a457600080fd5b828101905060208101848111156100ba57600080fd5b81518560208202830111640100000000821117156100d757600080fd5b5050929190505050826000806101000a81548173ffffffffffffffffffffffffffffffffffffffff021916908373ffffffffffffffffffffffffffffffffffffffff16021790555081600190805190602001906101359291906101c8565b5060008090505b815181101561019b576000828281518110151561015557fe5b90602001906020020151905060016002600083815260200190815260200160002060006101000a81548160ff02191690831515021790555050808060010191505061013c565b506000600360006101000a81548160ff021916908360028111156101bb57fe5b021790555050505061026d565b828054600181600116156101000203166002900490600052602060002090601f016020900481019282601f1061020957805160ff1916838001178555610237565b82800160010185558215610237579182015b8281111561023657825182559160200191906001019061021b565b5b5090506102449190610248565b5090565b61026a91905b8082111561026657600081600090555060010161024e565b5090565b90565b6102fc8061027c6000396000f3fe608060405260043610610062576000357c0100000000000000000000000000000000000000000000000000000000900463ffffffff168063200d2ed21461006757806381d12c58146100a0578063c5a1d7f0146100f3578063c802c74314610183575b600080fd5b34801561007357600080fd5b5061007c6101da565b6040518082600281111561008c57fe5b60ff16815260200191505060405180910390f35b3480156100ac57600080fd5b506100d9600480360360208110156100c357600080fd5b81019080803590602001909291905050506101ed565b604051808215151515815260200191505060405180910390f35b3480156100ff57600080fd5b5061010861020d565b6040518080602001828103825283818151815260200191508051906020019080838360005b8381101561014857808201518184015260208101905061012d565b50505050905090810190601f1680156101755780820380516001836020036101000a031916815260200191505b509250505060405180910390f35b34801561018f57600080fd5b506101986102ab565b604051808273ffffffffffffffffffffffffffffffffffffffff1673ffffffffffffffffffffffffffffffffffffffff16815260200191505060405180910390f35b600360009054906101000a900460ff1681565b60026020528060005260406000206000915054906101000a900460ff1681565b60018054600181600116156101000203166002900480601f0160208091040260200160405190810160405280929190818152602001828054600181600116156101000203166002900480156102a35780601f10610278576101008083540402835291602001916102a3565b820191906000526020600020905b81548152906001019060200180831161028657829003601f168201915b505050505081565b6000809054906101000a900473ffffffffffffffffffffffffffffffffffffffff168156fea165627a7a72305820e5094904029fc307d1e7862c18aaba5d359785751790ad2df7142402145f44780029",
  "source": "pragma solidity ^0.5.0;\n\n\ncontract Slate {\n    // Possible states for a Slate\n    enum Status {\n        // Has not been staked on yet\n        Unstaked,\n        // Was rejected through a vote\n        Rejected,\n        // Was accepted through no contest or through a vote\n        Accepted\n    }\n\n    // The account that recommended this slate\n    address public recommender;\n\n    // Metadata about the slate\n    bytes public metadataHash;\n\n    // Requests included in the slate\n    mapping(uint => bool) public requests;\n\n    // The current status of the slate\n    Status public status;\n\n    /**\n     @dev Initialize a new Slate.\n     @param _recommender The account that created the slate\n     @param _metadataHash A reference to metadata about the slate\n     @param _requestIDs Requests to be granted if the slate is accepted\n    */\n    constructor(\n        address _recommender,\n        bytes memory _metadataHash,\n        uint[] memory _requestIDs\n    )\n        public\n    {\n        recommender = _recommender;\n        metadataHash = _metadataHash;\n\n        for (uint i = 0; i < _requestIDs.length; i++) {\n            // NOTE: no duplicates\n            uint requestID = _requestIDs[i];\n            requests[requestID] = true;\n        }\n\n        status = Status.Unstaked;\n    }\n}\n",
  "sourcePath": "/Users/kangarang/Desktop/Projects/panvala/governance-contracts/contracts/Slate.sol",
  "compiler": {
    "name": "solc",
    "version": "0.5.0+commit.1d4f565a.Emscripten.clang"
  },
  "schemaVersion": "3.0.2",
  "updatedAt": "2019-03-01T06:39:33.146Z",
  "devdoc": {
    "methods": {
      "constructor": {
        "details": "Initialize a new Slate.",
        "params": {
          "_metadataHash": "A reference to metadata about the slate",
          "_recommender": "The account that created the slate",
          "_requestIDs": "Requests to be granted if the slate is accepted"
        }
      }
    }
  },
  "userdoc": {
    "methods": {}
  }
}