{
  "contractName": "TokenCapacitor",
  "abi": [
    {
      "constant": true,
      "inputs": [
        {
          "name": "",
          "type": "uint256"
        }
      ],
      "name": "proposals",
      "outputs": [
        {
          "name": "tokens",
          "type": "uint256"
        },
        {
          "name": "to",
          "type": "address"
        },
        {
          "name": "metadataHash",
          "type": "bytes"
        },
        {
          "name": "approved",
          "type": "bool"
        }
      ],
      "payable": false,
      "stateMutability": "view",
      "type": "function"
    },
    {
      "constant": true,
      "inputs": [],
      "name": "gatekeeper",
      "outputs": [
        {
          "name": "",
          "type": "address"
        }
      ],
      "payable": false,
      "stateMutability": "view",
      "type": "function"
    },
    {
      "inputs": [
        {
          "name": "_gatekeeper",
          "type": "address"
        }
      ],
      "payable": false,
      "stateMutability": "nonpayable",
      "type": "constructor"
    },
    {
      "anonymous": false,
      "inputs": [
        {
          "indexed": true,
          "name": "proposer",
          "type": "address"
        },
        {
          "indexed": false,
          "name": "requestID",
          "type": "uint256"
        },
        {
          "indexed": true,
          "name": "to",
          "type": "address"
        },
        {
          "indexed": false,
          "name": "tokens",
          "type": "uint256"
        },
        {
          "indexed": false,
          "name": "metadataHash",
          "type": "bytes"
        }
      ],
      "name": "ProposalCreated",
      "type": "event"
    },
    {
      "constant": false,
      "inputs": [
        {
          "name": "to",
          "type": "address"
        },
        {
          "name": "tokens",
          "type": "uint256"
        },
        {
          "name": "metadataHash",
          "type": "bytes"
        }
      ],
      "name": "createProposal",
      "outputs": [
        {
          "name": "",
          "type": "uint256"
        }
      ],
      "payable": false,
      "stateMutability": "nonpayable",
      "type": "function"
    }
  ],
  "bytecode": "0x608060405234801561001057600080fd5b506040516020806108ad8339810180604052602081101561003057600080fd5b8101908080519060200190929190505050806000806101000a81548173ffffffffffffffffffffffffffffffffffffffff021916908373ffffffffffffffffffffffffffffffffffffffff1602179055505061081c806100916000396000f3fe608060405260043610610057576000357c0100000000000000000000000000000000000000000000000000000000900463ffffffff168063013cf08b1461005c57806350eb932114610155578063a59c9c271461025b575b600080fd5b34801561006857600080fd5b506100956004803603602081101561007f57600080fd5b81019080803590602001909291905050506102b2565b604051808581526020018473ffffffffffffffffffffffffffffffffffffffff1673ffffffffffffffffffffffffffffffffffffffff1681526020018060200183151515158152602001828103825284818151815260200191508051906020019080838360005b838110156101175780820151818401526020810190506100fc565b50505050905090810190601f1680156101445780820380516001836020036101000a031916815260200191505b509550505050505060405180910390f35b34801561016157600080fd5b506102456004803603606081101561017857600080fd5b81019080803573ffffffffffffffffffffffffffffffffffffffff16906020019092919080359060200190929190803590602001906401000000008111156101bf57600080fd5b8201836020820111156101d157600080fd5b803590602001918460018302840111640100000000831117156101f357600080fd5b91908080601f016020809104026020016040519081016040528093929190818152602001838380828437600081840152601f19601f8201169050808301925050505050505091929192905050506103a7565b6040518082815260200191505060405180910390f35b34801561026757600080fd5b506102706106c4565b604051808273ffffffffffffffffffffffffffffffffffffffff1673ffffffffffffffffffffffffffffffffffffffff16815260200191505060405180910390f35b60016020528060005260406000206000915090508060000154908060010160009054906101000a900473ffffffffffffffffffffffffffffffffffffffff1690806002018054600181600116156101000203166002900480601f01602080910402602001604051908101604052809291908181526020018280546001816001161561010002031660029004801561038a5780601f1061035f5761010080835404028352916020019161038a565b820191906000526020600020905b81548152906001019060200180831161036d57829003601f168201915b5050505050908060030160009054906101000a900460ff16905084565b60006103b161070a565b6080604051908101604052808581526020018673ffffffffffffffffffffffffffffffffffffffff16815260200184815260200160001515815250905060008060009054906101000a900473ffffffffffffffffffffffffffffffffffffffff1673ffffffffffffffffffffffffffffffffffffffff166333a5ae29856040518263ffffffff167c01000000000000000000000000000000000000000000000000000000000281526004018080602001828103825283818151815260200191508051906020019080838360005b8381101561049957808201518184015260208101905061047e565b50505050905090810190601f1680156104c65780820380516001836020036101000a031916815260200191505b5092505050602060405180830381600087803b1580156104e557600080fd5b505af11580156104f9573d6000803e3d6000fd5b505050506040513d602081101561050f57600080fd5b8101908080519060200190929190505050905081600160008381526020019081526020016000206000820151816000015560208201518160010160006101000a81548173ffffffffffffffffffffffffffffffffffffffff021916908373ffffffffffffffffffffffffffffffffffffffff16021790555060408201518160020190805190602001906105a392919061074b565b5060608201518160030160006101000a81548160ff0219169083151502179055509050506105dd60016002546106e990919063ffffffff16565b508573ffffffffffffffffffffffffffffffffffffffff163373ffffffffffffffffffffffffffffffffffffffff167fa87d4e3b8f425bb121b2580e6593461e86a9fdbb6b7339609b693f692868f6fe8388886040518084815260200183815260200180602001828103825283818151815260200191508051906020019080838360005b8381101561067c578082015181840152602081019050610661565b50505050905090810190601f1680156106a95780820380516001836020036101000a031916815260200191505b5094505050505060405180910390a380925050509392505050565b6000809054906101000a900473ffffffffffffffffffffffffffffffffffffffff1681565b600080828401905083811015151561070057600080fd5b8091505092915050565b60806040519081016040528060008152602001600073ffffffffffffffffffffffffffffffffffffffff168152602001606081526020016000151581525090565b828054600181600116156101000203166002900490600052602060002090601f016020900481019282601f1061078c57805160ff19168380011785556107ba565b828001600101855582156107ba579182015b828111156107b957825182559160200191906001019061079e565b5b5090506107c791906107cb565b5090565b6107ed91905b808211156107e95760008160009055506001016107d1565b5090565b9056fea165627a7a72305820a6a9f1d2043577958c9e13e2cbacd343ac964c6b1e49f24a359976e197a900440029",
  "source": "pragma solidity ^0.5.0;\n\nimport \"./Gatekeeper.sol\";\nimport \"openzeppelin-solidity/contracts/math/SafeMath.sol\";\n\n\ncontract TokenCapacitor {\n    // EVENTS\n    event ProposalCreated(address indexed proposer, uint requestID, address indexed to, uint tokens, bytes metadataHash);\n\n    // STATE\n    using SafeMath for uint;\n\n    // The address of the associated Gatekeeper contract\n    Gatekeeper public gatekeeper;\n\n    struct Proposal {\n        uint tokens;\n        address to;\n        bytes metadataHash;\n        bool approved;\n    }\n\n    // The proposals created for the TokenCapacitor. Maps requestIDs to proposals.\n    mapping(uint => Proposal) public proposals;\n\n    // The total number of proposals\n    uint proposalCount;\n\n\n    // IMPLEMENTATION\n    constructor(Gatekeeper _gatekeeper) public {\n        gatekeeper = _gatekeeper;\n    }\n\n    /**\n     @dev Create a proposal to send tokens to a beneficiary.\n     @param to The account to send the tokens to\n     @param tokens The number of tokens to send\n     @param metadataHash A reference to metadata describing the proposal\n    */\n    function createProposal(address to, uint tokens, bytes memory metadataHash) public returns(uint) {\n        Proposal memory p = Proposal({\n            tokens: tokens,\n            to: to,\n            metadataHash: metadataHash,\n            approved: false\n        });\n\n        // Request permission from the Gatekeeper and store the proposal data for later.\n        // If the request is approved, a user can execute the proposal by providing the\n        // requestID.\n        uint requestID = gatekeeper.requestPermission(metadataHash);\n        proposals[requestID] = p;\n        proposalCount.add(1);\n\n        emit ProposalCreated(msg.sender, requestID, to, tokens, metadataHash);\n        return requestID;\n    }\n\n    // TODO: batch create proposals\n}\n",
  "sourcePath": "/Users/kangarang/Desktop/Projects/panvala/governance-contracts/contracts/TokenCapacitor.sol",
  "compiler": {
    "name": "solc",
    "version": "0.5.0+commit.1d4f565a.Emscripten.clang"
  },
  "schemaVersion": "3.0.2",
  "updatedAt": "2019-03-01T06:39:33.147Z",
  "devdoc": {
    "methods": {
      "createProposal(address,uint256,bytes)": {
        "details": "Create a proposal to send tokens to a beneficiary.",
        "params": {
          "metadataHash": "A reference to metadata describing the proposal",
          "to": "The account to send the tokens to",
          "tokens": "The number of tokens to send"
        }
      }
    }
  },
  "userdoc": {
    "methods": {}
  }
}