{
  "contractName": "Slate",
  "abi": [
    {
      "constant": true,
      "inputs": [],
      "name": "status",
      "outputs": [
        {
          "name": "",
          "type": "uint8"
        }
      ],
      "payable": false,
      "stateMutability": "view",
      "type": "function"
    },
    {
      "constant": true,
      "inputs": [
        {
          "name": "",
          "type": "uint256"
        }
      ],
      "name": "requests",
      "outputs": [
        {
          "name": "",
          "type": "bool"
        }
      ],
      "payable": false,
      "stateMutability": "view",
      "type": "function"
    },
    {
      "constant": true,
      "inputs": [],
      "name": "metadataHash",
      "outputs": [
        {
          "name": "",
          "type": "bytes"
        }
      ],
      "payable": false,
      "stateMutability": "view",
      "type": "function"
    },
    {
      "constant": true,
      "inputs": [],
      "name": "recommender",
      "outputs": [
        {
          "name": "",
          "type": "address"
        }
      ],
      "payable": false,
      "stateMutability": "view",
      "type": "function"
    },
    {
      "inputs": [
        {
          "name": "_recommender",
          "type": "address"
        },
        {
          "name": "_metadataHash",
          "type": "bytes"
        },
        {
          "name": "_requestIDs",
          "type": "uint256[]"
        }
      ],
      "payable": false,
      "stateMutability": "nonpayable",
      "type": "constructor"
    }
  ],
  "bytecode": "0x608060405234801561001057600080fd5b506040516106bc3803806106bc8339810180604052606081101561003357600080fd5b8101908080519060200190929190805164010000000081111561005557600080fd5b8281019050602081018481111561006b57600080fd5b815185600182028301116401000000008211171561008857600080fd5b505092919060200180516401000000008111156100a457600080fd5b828101905060208101848111156100ba57600080fd5b81518560208202830111640100000000821117156100d757600080fd5b5050929190505050600073ffffffffffffffffffffffffffffffffffffffff168373ffffffffffffffffffffffffffffffffffffffff16141515156101aa576040517f08c379a00000000000000000000000000000000000000000000000000000000081526004018080602001828103825260268152602001807f5265636f6d6d656e6465722063616e6e6f7420626520746865207a65726f206181526020017f646472657373000000000000000000000000000000000000000000000000000081525060400191505060405180910390fd5b60008251111515610223576040517f08c379a000000000000000000000000000000000000000000000000000000000815260040180806020018281038252601d8152602001807f4d6574616461746120686173682063616e6e6f7420626520656d70747900000081525060200191505060405180910390fd5b826000806101000a81548173ffffffffffffffffffffffffffffffffffffffff021916908373ffffffffffffffffffffffffffffffffffffffff160217905550816001908051906020019061027992919061030c565b5060008090505b81518110156102df576000828281518110151561029957fe5b90602001906020020151905060016002600083815260200190815260200160002060006101000a81548160ff021916908315150217905550508080600101915050610280565b506000600360006101000a81548160ff021916908360028111156102ff57fe5b02179055505050506103b1565b828054600181600116156101000203166002900490600052602060002090601f016020900481019282601f1061034d57805160ff191683800117855561037b565b8280016001018555821561037b579182015b8281111561037a57825182559160200191906001019061035f565b5b509050610388919061038c565b5090565b6103ae91905b808211156103aa576000816000905550600101610392565b5090565b90565b6102fc806103c06000396000f3fe608060405260043610610062576000357c0100000000000000000000000000000000000000000000000000000000900463ffffffff168063200d2ed21461006757806381d12c58146100a0578063c5a1d7f0146100f3578063c802c74314610183575b600080fd5b34801561007357600080fd5b5061007c6101da565b6040518082600281111561008c57fe5b60ff16815260200191505060405180910390f35b3480156100ac57600080fd5b506100d9600480360360208110156100c357600080fd5b81019080803590602001909291905050506101ed565b604051808215151515815260200191505060405180910390f35b3480156100ff57600080fd5b5061010861020d565b6040518080602001828103825283818151815260200191508051906020019080838360005b8381101561014857808201518184015260208101905061012d565b50505050905090810190601f1680156101755780820380516001836020036101000a031916815260200191505b509250505060405180910390f35b34801561018f57600080fd5b506101986102ab565b604051808273ffffffffffffffffffffffffffffffffffffffff1673ffffffffffffffffffffffffffffffffffffffff16815260200191505060405180910390f35b600360009054906101000a900460ff1681565b60026020528060005260406000206000915054906101000a900460ff1681565b60018054600181600116156101000203166002900480601f0160208091040260200160405190810160405280929190818152602001828054600181600116156101000203166002900480156102a35780601f10610278576101008083540402835291602001916102a3565b820191906000526020600020905b81548152906001019060200180831161028657829003601f168201915b505050505081565b6000809054906101000a900473ffffffffffffffffffffffffffffffffffffffff168156fea165627a7a723058208eef4873acb90100a24beec18056b753a3769337201b45ab18924a30bcefdb900029",
  "source": "pragma solidity ^0.5.0;\n\n\ncontract Slate {\n    // Possible states for a Slate\n    enum Status {\n        // Has not been staked on yet\n        Unstaked,\n        // Was rejected through a vote\n        Rejected,\n        // Was accepted through no contest or through a vote\n        Accepted\n    }\n\n    // The account that recommended this slate\n    address public recommender;\n\n    // Metadata about the slate\n    bytes public metadataHash;\n\n    // Requests included in the slate\n    mapping(uint => bool) public requests;\n\n    // The current status of the slate\n    Status public status;\n\n    /**\n     @dev Initialize a new Slate.\n     @param _recommender The account that created the slate\n     @param _metadataHash A reference to metadata about the slate\n     @param _requestIDs Requests to be granted if the slate is accepted\n    */\n    constructor(\n        address _recommender,\n        bytes memory _metadataHash,\n        uint[] memory _requestIDs\n    )\n        public\n    {\n        require(_recommender != address(0), \"Recommender cannot be the zero address\");\n        require(_metadataHash.length > 0, \"Metadata hash cannot be empty\");\n\n        recommender = _recommender;\n        metadataHash = _metadataHash;\n\n        for (uint i = 0; i < _requestIDs.length; i++) {\n            // NOTE: no duplicates\n            uint requestID = _requestIDs[i];\n            requests[requestID] = true;\n        }\n\n        status = Status.Unstaked;\n    }\n}\n",
  "sourcePath": "/Users/akua/projects/panvala/panvala/governance-contracts/contracts/Slate.sol",
  "compiler": {
    "name": "solc",
    "version": "0.5.0+commit.1d4f565a.Emscripten.clang"
  },
  "schemaVersion": "3.0.1",
  "updatedAt": "2019-03-06T17:31:38.354Z",
  "devdoc": {
    "methods": {
      "constructor": {
        "details": "Initialize a new Slate.",
        "params": {
          "_metadataHash": "A reference to metadata about the slate",
          "_recommender": "The account that created the slate",
          "_requestIDs": "Requests to be granted if the slate is accepted"
        }
      }
    }
  },
  "userdoc": {
    "methods": {}
  }
}